{
  "contractName": "SchoolManager",
  "abi": [
    {
      "inputs": [],
      "stateMutability": "nonpayable",
      "type": "constructor"
    },
    {
      "anonymous": false,
      "inputs": [
        {
          "indexed": false,
          "internalType": "uint256",
          "name": "grade",
          "type": "uint256"
        },
        {
          "indexed": false,
          "internalType": "address",
          "name": "studentAddress",
          "type": "address"
        }
      ],
      "name": "LogGradeAdded",
      "type": "event"
    },
    {
      "anonymous": false,
      "inputs": [
        {
          "indexed": false,
          "internalType": "string",
          "name": "firstName",
          "type": "string"
        },
        {
          "indexed": false,
          "internalType": "address",
          "name": "studentAddress",
          "type": "address"
        }
      ],
      "name": "LogStudentAdded",
      "type": "event"
    },
    {
      "anonymous": false,
      "inputs": [
        {
          "indexed": false,
          "internalType": "enum SchoolManager.State",
          "name": "status",
          "type": "uint8"
        },
        {
          "indexed": false,
          "internalType": "address",
          "name": "studentAddress",
          "type": "address"
        }
      ],
      "name": "LogStudentGraduate",
      "type": "event"
    },
    {
      "anonymous": false,
      "inputs": [
        {
          "indexed": true,
          "internalType": "address",
          "name": "previousOwner",
          "type": "address"
        },
        {
          "indexed": true,
          "internalType": "address",
          "name": "newOwner",
          "type": "address"
        }
      ],
      "name": "OwnershipTransferred",
      "type": "event"
    },
    {
      "inputs": [],
      "name": "owner",
      "outputs": [
        {
          "internalType": "address",
          "name": "",
          "type": "address"
        }
      ],
      "stateMutability": "view",
      "type": "function",
      "constant": true
    },
    {
      "inputs": [],
      "name": "renounceOwnership",
      "outputs": [],
      "stateMutability": "nonpayable",
      "type": "function"
    },
    {
      "inputs": [
        {
          "internalType": "address",
          "name": "newOwner",
          "type": "address"
        }
      ],
      "name": "transferOwnership",
      "outputs": [],
      "stateMutability": "nonpayable",
      "type": "function"
    },
    {
      "inputs": [
        {
          "internalType": "address",
          "name": "_studentAddress",
          "type": "address"
        },
        {
          "internalType": "string",
          "name": "_firstName",
          "type": "string"
        }
      ],
      "name": "addStudent",
      "outputs": [],
      "stateMutability": "nonpayable",
      "type": "function"
    },
    {
      "inputs": [
        {
          "internalType": "address",
          "name": "_studentAddress",
          "type": "address"
        },
        {
          "internalType": "uint256",
          "name": "_grade",
          "type": "uint256"
        }
      ],
      "name": "addGrade",
      "outputs": [],
      "stateMutability": "nonpayable",
      "type": "function"
    },
    {
      "inputs": [
        {
          "internalType": "address",
          "name": "_studentAddress",
          "type": "address"
        }
      ],
      "name": "getOneStudent",
      "outputs": [
        {
          "internalType": "enum SchoolManager.State",
          "name": "",
          "type": "uint8"
        },
        {
          "internalType": "uint256",
          "name": "grade",
          "type": "uint256"
        },
        {
          "internalType": "string",
          "name": "firstName",
          "type": "string"
        }
      ],
      "stateMutability": "view",
      "type": "function",
      "constant": true
    },
    {
      "inputs": [],
      "name": "getListStudents",
      "outputs": [
        {
          "internalType": "address[]",
          "name": "",
          "type": "address[]"
        }
      ],
      "stateMutability": "view",
      "type": "function",
      "constant": true
    },
    {
      "inputs": [],
      "name": "getStudentCount",
      "outputs": [
        {
          "internalType": "uint256",
          "name": "",
          "type": "uint256"
        }
      ],
      "stateMutability": "view",
      "type": "function",
      "constant": true
    },
    {
      "inputs": [],
      "name": "sendDegreeNFT",
      "outputs": [],
      "stateMutability": "nonpayable",
      "type": "function"
    }
  ],
  "bytecode": "0x608060405234801561001057600080fd5b5061002d61002261003260201b60201c565b61003a60201b60201c565b6100fe565b600033905090565b60008060009054906101000a900473ffffffffffffffffffffffffffffffffffffffff169050816000806101000a81548173ffffffffffffffffffffffffffffffffffffffff021916908373ffffffffffffffffffffffffffffffffffffffff1602179055508173ffffffffffffffffffffffffffffffffffffffff168173ffffffffffffffffffffffffffffffffffffffff167f8be0079c531659141344cd1fd0a4f28419497f9722a3daafe3b4186f6b6457e060405160405180910390a35050565b6119ca8061010d6000396000f3fe608060405234801561001057600080fd5b50600436106100935760003560e01c80638af45ef2116100665780638af45ef21461010e5780638da5cb5b1461012c578063bd78ab581461014a578063ee1126e914610166578063f2fde38b1461017057610093565b806334e91a1c1461009857806341e0c407146100ca5780635e8b8091146100e8578063715018a614610104575b600080fd5b6100b260048036038101906100ad9190611114565b61018c565b6040516100c1939291906113dd565b60405180910390f35b6100d2610415565b6040516100df91906114eb565b60405180910390f35b61010260048036038101906100fd9190611141565b61041f565b005b61010c610721565b005b6101166107a9565b6040516101239190611392565b60405180910390f35b6101346108a3565b6040516101419190611377565b60405180910390f35b610164600480360381019061015f919061119d565b6108cc565b005b61016e610d95565b005b61018a60048036038101906101859190611114565b610e13565b005b6000806060836000600160008373ffffffffffffffffffffffffffffffffffffffff1673ffffffffffffffffffffffffffffffffffffffff16815260200190815260200160002060000180546101e19061167d565b80601f016020809104026020016040519081016040528092919081815260200182805461020d9061167d565b801561025a5780601f1061022f5761010080835404028352916020019161025a565b820191906000526020600020905b81548152906001019060200180831161023d57829003601f168201915b5050505050905060008151116102a5576040517f08c379a000000000000000000000000000000000000000000000000000000000815260040161029c906114cb565b60405180910390fd5b600160008773ffffffffffffffffffffffffffffffffffffffff1673ffffffffffffffffffffffffffffffffffffffff16815260200190815260200160002060020160149054906101000a900460ff16600160008873ffffffffffffffffffffffffffffffffffffffff1673ffffffffffffffffffffffffffffffffffffffff16815260200190815260200160002060010154600160008973ffffffffffffffffffffffffffffffffffffffff1673ffffffffffffffffffffffffffffffffffffffff1681526020019081526020016000206000018080546103869061167d565b80601f01602080910402602001604051908101604052809291908181526020018280546103b29061167d565b80156103ff5780601f106103d4576101008083540402835291602001916103ff565b820191906000526020600020905b8154815290600101906020018083116103e257829003601f168201915b5050505050905094509450945050509193909250565b6000600354905090565b816000600160008373ffffffffffffffffffffffffffffffffffffffff1673ffffffffffffffffffffffffffffffffffffffff168152602001908152602001600020600001805461046f9061167d565b80601f016020809104026020016040519081016040528092919081815260200182805461049b9061167d565b80156104e85780601f106104bd576101008083540402835291602001916104e8565b820191906000526020600020905b8154815290600101906020018083116104cb57829003601f168201915b505050505090506000815114610533576040517f08c379a000000000000000000000000000000000000000000000000000000000815260040161052a9061146b565b60405180910390fd5b82600160008673ffffffffffffffffffffffffffffffffffffffff1673ffffffffffffffffffffffffffffffffffffffff1681526020019081526020016000206000019080519060200190610589929190610fd7565b5083600160008673ffffffffffffffffffffffffffffffffffffffff1673ffffffffffffffffffffffffffffffffffffffff16815260200190815260200160002060020160006101000a81548173ffffffffffffffffffffffffffffffffffffffff021916908373ffffffffffffffffffffffffffffffffffffffff1602179055508360026000600354815260200190815260200160002060006101000a81548173ffffffffffffffffffffffffffffffffffffffff021916908373ffffffffffffffffffffffffffffffffffffffff1602179055506000600160008673ffffffffffffffffffffffffffffffffffffffff1673ffffffffffffffffffffffffffffffffffffffff16815260200190815260200160002060020160146101000a81548160ff021916908360018111156106c5576106c4611758565b5b0217905550600360008154809291906106dd906116e0565b91905055507f58440780b19d050b89fd71046a2ab4cf86ab3f11229f9b27d531f6e030ac6fa6838560405161071392919061141b565b60405180910390a150505050565b610729610f0b565b73ffffffffffffffffffffffffffffffffffffffff166107476108a3565b73ffffffffffffffffffffffffffffffffffffffff161461079d576040517f08c379a00000000000000000000000000000000000000000000000000000000081526004016107949061148b565b60405180910390fd5b6107a76000610f13565b565b6060600060035467ffffffffffffffff8111156107c9576107c86117e5565b5b6040519080825280602002602001820160405280156107f75781602001602082028036833780820191505090505b50905060005b60035481101561089b576002600082815260200190815260200160002060009054906101000a900473ffffffffffffffffffffffffffffffffffffffff1682828151811061084e5761084d6117b6565b5b602002602001019073ffffffffffffffffffffffffffffffffffffffff16908173ffffffffffffffffffffffffffffffffffffffff16815250508080610893906116e0565b9150506107fd565b508091505090565b60008060009054906101000a900473ffffffffffffffffffffffffffffffffffffffff16905090565b6108d4610f0b565b73ffffffffffffffffffffffffffffffffffffffff166108f26108a3565b73ffffffffffffffffffffffffffffffffffffffff1614610948576040517f08c379a000000000000000000000000000000000000000000000000000000000815260040161093f9061148b565b60405180910390fd5b816000600160008373ffffffffffffffffffffffffffffffffffffffff1673ffffffffffffffffffffffffffffffffffffffff16815260200190815260200160002060000180546109989061167d565b80601f01602080910402602001604051908101604052809291908181526020018280546109c49061167d565b8015610a115780601f106109e657610100808354040283529160200191610a11565b820191906000526020600020905b8154815290600101906020018083116109f457829003601f168201915b505050505090506000815111610a5c576040517f08c379a0000000000000000000000000000000000000000000000000000000008152600401610a53906114cb565b60405180910390fd5b836000600160008373ffffffffffffffffffffffffffffffffffffffff1673ffffffffffffffffffffffffffffffffffffffff1681526020019081526020016000206001015414610ae2576040517f08c379a0000000000000000000000000000000000000000000000000000000008152600401610ad9906114ab565b60405180910390fd5b83600160008773ffffffffffffffffffffffffffffffffffffffff1673ffffffffffffffffffffffffffffffffffffffff16815260200190815260200160002060010181905550600a8410610c61577f2b39d850d05305b5ce45dddc8ca96448de078481f3366ae5554f0a3bf9e374fb8486604051610b62929190611506565b60405180910390a160018060008773ffffffffffffffffffffffffffffffffffffffff1673ffffffffffffffffffffffffffffffffffffffff16815260200190815260200160002060020160146101000a81548160ff02191690836001811115610bcf57610bce611758565b5b02179055507f92d7e7b1e714a1a53a7ec58535218a2b5be68ef6b963cb5d41c07d57c624f1ee600160008773ffffffffffffffffffffffffffffffffffffffff1673ffffffffffffffffffffffffffffffffffffffff16815260200190815260200160002060020160149054906101000a900460ff1686604051610c549291906113b4565b60405180910390a1610d8e565b7f2b39d850d05305b5ce45dddc8ca96448de078481f3366ae5554f0a3bf9e374fb8486604051610c92929190611506565b60405180910390a16000600160008773ffffffffffffffffffffffffffffffffffffffff1673ffffffffffffffffffffffffffffffffffffffff16815260200190815260200160002060020160146101000a81548160ff02191690836001811115610d0057610cff611758565b5b02179055507f92d7e7b1e714a1a53a7ec58535218a2b5be68ef6b963cb5d41c07d57c624f1ee600160008773ffffffffffffffffffffffffffffffffffffffff1673ffffffffffffffffffffffffffffffffffffffff16815260200190815260200160002060020160149054906101000a900460ff1686604051610d859291906113b4565b60405180910390a15b5050505050565b610d9d610f0b565b73ffffffffffffffffffffffffffffffffffffffff16610dbb6108a3565b73ffffffffffffffffffffffffffffffffffffffff1614610e11576040517f08c379a0000000000000000000000000000000000000000000000000000000008152600401610e089061148b565b60405180910390fd5b565b610e1b610f0b565b73ffffffffffffffffffffffffffffffffffffffff16610e396108a3565b73ffffffffffffffffffffffffffffffffffffffff1614610e8f576040517f08c379a0000000000000000000000000000000000000000000000000000000008152600401610e869061148b565b60405180910390fd5b600073ffffffffffffffffffffffffffffffffffffffff168173ffffffffffffffffffffffffffffffffffffffff161415610eff576040517f08c379a0000000000000000000000000000000000000000000000000000000008152600401610ef69061144b565b60405180910390fd5b610f0881610f13565b50565b600033905090565b60008060009054906101000a900473ffffffffffffffffffffffffffffffffffffffff169050816000806101000a81548173ffffffffffffffffffffffffffffffffffffffff021916908373ffffffffffffffffffffffffffffffffffffffff1602179055508173ffffffffffffffffffffffffffffffffffffffff168173ffffffffffffffffffffffffffffffffffffffff167f8be0079c531659141344cd1fd0a4f28419497f9722a3daafe3b4186f6b6457e060405160405180910390a35050565b828054610fe39061167d565b90600052602060002090601f016020900481019282611005576000855561104c565b82601f1061101e57805160ff191683800117855561104c565b8280016001018555821561104c579182015b8281111561104b578251825591602001919060010190611030565b5b509050611059919061105d565b5090565b5b8082111561107657600081600090555060010161105e565b5090565b600061108d61108884611554565b61152f565b9050828152602081018484840111156110a9576110a8611819565b5b6110b484828561163b565b509392505050565b6000813590506110cb81611966565b92915050565b600082601f8301126110e6576110e5611814565b5b81356110f684826020860161107a565b91505092915050565b60008135905061110e8161197d565b92915050565b60006020828403121561112a57611129611823565b5b6000611138848285016110bc565b91505092915050565b6000806040838503121561115857611157611823565b5b6000611166858286016110bc565b925050602083013567ffffffffffffffff8111156111875761118661181e565b5b611193858286016110d1565b9150509250929050565b600080604083850312156111b4576111b3611823565b5b60006111c2858286016110bc565b92505060206111d3858286016110ff565b9150509250929050565b60006111e983836111f5565b60208301905092915050565b6111fe816115da565b82525050565b61120d816115da565b82525050565b600061121e82611595565b61122881856115b8565b935061123383611585565b8060005b8381101561126457815161124b88826111dd565b9750611256836115ab565b925050600181019050611237565b5085935050505092915050565b61127a81611629565b82525050565b600061128b826115a0565b61129581856115c9565b93506112a581856020860161164a565b6112ae81611828565b840191505092915050565b60006112c66026836115c9565b91506112d182611839565b604082019050919050565b60006112e9601a836115c9565b91506112f482611888565b602082019050919050565b600061130c6020836115c9565b9150611317826118b1565b602082019050919050565b600061132f601d836115c9565b915061133a826118da565b602082019050919050565b60006113526021836115c9565b915061135d82611903565b604082019050919050565b6113718161161f565b82525050565b600060208201905061138c6000830184611204565b92915050565b600060208201905081810360008301526113ac8184611213565b905092915050565b60006040820190506113c96000830185611271565b6113d66020830184611204565b9392505050565b60006060820190506113f26000830186611271565b6113ff6020830185611368565b81810360408301526114118184611280565b9050949350505050565b600060408201905081810360008301526114358185611280565b90506114446020830184611204565b9392505050565b60006020820190508181036000830152611464816112b9565b9050919050565b60006020820190508181036000830152611484816112dc565b9050919050565b600060208201905081810360008301526114a4816112ff565b9050919050565b600060208201905081810360008301526114c481611322565b9050919050565b600060208201905081810360008301526114e481611345565b9050919050565b60006020820190506115006000830184611368565b92915050565b600060408201905061151b6000830185611368565b6115286020830184611204565b9392505050565b600061153961154a565b905061154582826116af565b919050565b6000604051905090565b600067ffffffffffffffff82111561156f5761156e6117e5565b5b61157882611828565b9050602081019050919050565b6000819050602082019050919050565b600081519050919050565b600081519050919050565b6000602082019050919050565b600082825260208201905092915050565b600082825260208201905092915050565b60006115e5826115ff565b9050919050565b60008190506115fa82611952565b919050565b600073ffffffffffffffffffffffffffffffffffffffff82169050919050565b6000819050919050565b6000611634826115ec565b9050919050565b82818337600083830152505050565b60005b8381101561166857808201518184015260208101905061164d565b83811115611677576000848401525b50505050565b6000600282049050600182168061169557607f821691505b602082108114156116a9576116a8611787565b5b50919050565b6116b882611828565b810181811067ffffffffffffffff821117156116d7576116d66117e5565b5b80604052505050565b60006116eb8261161f565b91507fffffffffffffffffffffffffffffffffffffffffffffffffffffffffffffffff82141561171e5761171d611729565b5b600182019050919050565b7f4e487b7100000000000000000000000000000000000000000000000000000000600052601160045260246000fd5b7f4e487b7100000000000000000000000000000000000000000000000000000000600052602160045260246000fd5b7f4e487b7100000000000000000000000000000000000000000000000000000000600052602260045260246000fd5b7f4e487b7100000000000000000000000000000000000000000000000000000000600052603260045260246000fd5b7f4e487b7100000000000000000000000000000000000000000000000000000000600052604160045260246000fd5b600080fd5b600080fd5b600080fd5b600080fd5b6000601f19601f8301169050919050565b7f4f776e61626c653a206e6577206f776e657220697320746865207a65726f206160008201527f6464726573730000000000000000000000000000000000000000000000000000602082015250565b7f546869732073747564656e7420616c7265616479206578697374000000000000600082015250565b7f4f776e61626c653a2063616c6c6572206973206e6f7420746865206f776e6572600082015250565b7f53747564656e7420616c72656164792072656365697665206772616465000000600082015250565b7f466972737420796f75206e65656420746f20616464207468652073747564656e60008201527f7400000000000000000000000000000000000000000000000000000000000000602082015250565b6002811061196357611962611758565b5b50565b61196f816115da565b811461197a57600080fd5b50565b6119868161161f565b811461199157600080fd5b5056fea264697066735822122064c4b093a1108116028780b2f783d75f71e01c52db3e041153d519acb8930e8d64736f6c63430008070033",
  "immutableReferences": {},
  "source": "// SPDX-License-Identifier: MIT\npragma solidity ^0.8.7;\n\nimport \"@openzeppelin/contracts/access/Ownable.sol\";\n\n/// @title Contract for manage grade's student\n/// @author Sylvain Sigonnez\n/// @notice Allows a teacher to give grade to a student , and student to see their grades and if they are graduates\n/// @dev Send a NFT degree to a graduate student\ncontract SchoolManager is Ownable{\n\n    constructor() { \n    }\n    \n    struct Student {\n        string firstName;\n        uint grade;\n        address studentAddress;\n        State status;\n    }\n    \n    mapping(address => Student) students;\n    mapping(uint => address) studentsAddresses;\n    uint studentCount; \n\n    enum State { studentNotGraduate, studentGraduate }\n\n    \n    /// @notice Emitted when a new student is added\n    /// @param firstName of student \n    /// @param studentAddress of student \n    event LogStudentAdded(string firstName , address studentAddress);\n    /// @notice Emitted when a new grade to a student is added\n    /// @param grade for the work of a student \n    /// @param studentAddress of student \n    event LogGradeAdded(uint grade , address studentAddress);\n    /// @notice Emitted when a new status is given to a student \n    /// @param status of the student according to the grade for his work \n    /// @param studentAddress of student \n    event LogStudentGraduate(State status , address studentAddress);\n\n    modifier isNewStudent (address studentAddress) {\n        bytes memory firstNameOfAddress = bytes(students[studentAddress].firstName);\n        require(firstNameOfAddress.length == 0, \"This student already exist\");\n        _;\n    }\n\n        modifier isStudent (address studentAddress) {\n        bytes memory firstNameOfAddress = bytes(students[studentAddress].firstName);\n        require(firstNameOfAddress.length > 0, \"First you need to add the student\");\n        _;\n    }\n\n    modifier isNewGrade(address studentAddress) {\n        require(students[studentAddress].grade == 0, \"Student already receive grade\");\n        _;\n    }\n\n    // @notice It will add a student if doesn't already exist\n    // @param _studenAddress the address of the new student\n    // @param _firstName the firstName of the new student\n    // @param _lasttName the firstName of the new student\n    function addStudent(address _studentAddress, string memory _firstName) external isNewStudent(_studentAddress){\n        students[_studentAddress].firstName = _firstName;\n        students[_studentAddress].studentAddress = _studentAddress;\n        studentsAddresses[studentCount]= _studentAddress;\n        students[_studentAddress].status = State.studentNotGraduate;\n        studentCount++;\n        emit LogStudentAdded(_firstName, _studentAddress);\n    }\n\n    // @notice It will add grade to a student if the student is already create\n    // @param _studenAddress the address of the new student\n    // @param _grade the grade of the work of the student\n    function addGrade(address _studentAddress, uint _grade) external onlyOwner isStudent(_studentAddress) isNewGrade(_studentAddress) {\n        students[_studentAddress].grade = _grade;\n        if(_grade >= 10) {\n        emit LogGradeAdded(_grade, _studentAddress);\n        students[_studentAddress].status = State.studentGraduate;\n        emit LogStudentGraduate(students[_studentAddress].status, _studentAddress);\n        } else {\n        emit LogGradeAdded(_grade, _studentAddress);\n        students[_studentAddress].status = State.studentNotGraduate;\n        emit LogStudentGraduate(students[_studentAddress].status, _studentAddress);\n        }\n    }\n    \n    // @notice It will get the grade, the status and the firstName of the Student\n    // @param _studenAddress the address of the student\n    // @return the grade, the status and the firstName of the student\n    function getOneStudent(address _studentAddress) public isStudent(_studentAddress) view returns(State, uint grade, string memory firstName ) {\n        return (students[_studentAddress].status, students[_studentAddress].grade, students[_studentAddress].firstName);\n    }\n\n    // @notice It will get the list of the address of all register student\n    // @param emppty array of address \n    // @return the list of the address of all register student\n    function getListStudents() public view returns (address[] memory){\n        address[] memory ret = new address[](studentCount);\n        for (uint i = 0; i < studentCount; i++) {\n            ret[i] = studentsAddresses[i];\n        }\n        return ret;\n    }\n    \n    // @notice It will get the number of all register student\n    // @param empty uint \n    // @return the count of all register student\n    function getStudentCount() public view returns (uint){\n        return studentCount;\n    }\n\n    /// @notice Send a NFT degree\n    /// @dev Only the owner of the contract can call this\n    function sendDegreeNFT () external onlyOwner {\n        // TODO: Send degree to student have graduate\n    }\n    \n}",
  "sourcePath": "/Users/sylvainsigonnez/git/schoolManager/back/contracts/schoolManager.sol",
  "compiler": {
    "name": "solc",
    "version": "0.8.7+commit.e28d00a7.Emscripten.clang"
  },
  "schemaVersion": "3.4.3",
  "updatedAt": "2021-11-30T20:27:49.835Z",
  "networkType": "ethereum",
  "devdoc": {
    "author": "Sylvain Sigonnez",
    "details": "Send a NFT degree to a graduate student",
    "events": {
      "LogGradeAdded(uint256,address)": {
        "params": {
          "grade": "for the work of a student ",
          "studentAddress": "of student "
        }
      },
      "LogStudentAdded(string,address)": {
        "params": {
          "firstName": "of student ",
          "studentAddress": "of student "
        }
      },
      "LogStudentGraduate(uint8,address)": {
        "params": {
          "status": "of the student according to the grade for his work ",
          "studentAddress": "of student "
        }
      }
    },
    "kind": "dev",
    "methods": {
      "owner()": {
        "details": "Returns the address of the current owner."
      },
      "renounceOwnership()": {
        "details": "Leaves the contract without owner. It will not be possible to call `onlyOwner` functions anymore. Can only be called by the current owner. NOTE: Renouncing ownership will leave the contract without an owner, thereby removing any functionality that is only available to the owner."
      },
      "sendDegreeNFT()": {
        "details": "Only the owner of the contract can call this"
      },
      "transferOwnership(address)": {
        "details": "Transfers ownership of the contract to a new account (`newOwner`). Can only be called by the current owner."
      }
    },
    "title": "Contract for manage grade's student",
    "version": 1
  },
  "userdoc": {
    "events": {
      "LogGradeAdded(uint256,address)": {
        "notice": "Emitted when a new grade to a student is added"
      },
      "LogStudentAdded(string,address)": {
        "notice": "Emitted when a new student is added"
      },
      "LogStudentGraduate(uint8,address)": {
        "notice": "Emitted when a new status is given to a student "
      }
    },
    "kind": "user",
    "methods": {
      "sendDegreeNFT()": {
        "notice": "Send a NFT degree"
      }
    },
    "notice": "Allows a teacher to give grade to a student , and student to see their grades and if they are graduates",
    "version": 1
  }
}