{
  "contractName": "SchoolManager",
  "abi": [
    {
      "inputs": [],
      "stateMutability": "nonpayable",
      "type": "constructor"
    },
    {
      "anonymous": false,
      "inputs": [
        {
          "indexed": false,
          "internalType": "uint256",
          "name": "grade",
          "type": "uint256"
        },
        {
          "indexed": false,
          "internalType": "address",
          "name": "studentAddress",
          "type": "address"
        }
      ],
      "name": "LogGradeAdded",
      "type": "event"
    },
    {
      "anonymous": false,
      "inputs": [
        {
          "indexed": false,
          "internalType": "string",
          "name": "firstName",
          "type": "string"
        },
        {
          "indexed": false,
          "internalType": "address",
          "name": "studentAddress",
          "type": "address"
        }
      ],
      "name": "LogStudentAdded",
      "type": "event"
    },
    {
      "anonymous": false,
      "inputs": [
        {
          "indexed": false,
          "internalType": "enum SchoolManager.State",
          "name": "status",
          "type": "uint8"
        },
        {
          "indexed": false,
          "internalType": "address",
          "name": "studentAddress",
          "type": "address"
        }
      ],
      "name": "LogStudentGraduate",
      "type": "event"
    },
    {
      "anonymous": false,
      "inputs": [
        {
          "indexed": true,
          "internalType": "address",
          "name": "previousOwner",
          "type": "address"
        },
        {
          "indexed": true,
          "internalType": "address",
          "name": "newOwner",
          "type": "address"
        }
      ],
      "name": "OwnershipTransferred",
      "type": "event"
    },
    {
      "inputs": [],
      "name": "owner",
      "outputs": [
        {
          "internalType": "address",
          "name": "",
          "type": "address"
        }
      ],
      "stateMutability": "view",
      "type": "function"
    },
    {
      "inputs": [],
      "name": "renounceOwnership",
      "outputs": [],
      "stateMutability": "nonpayable",
      "type": "function"
    },
    {
      "inputs": [
        {
          "internalType": "address",
          "name": "newOwner",
          "type": "address"
        }
      ],
      "name": "transferOwnership",
      "outputs": [],
      "stateMutability": "nonpayable",
      "type": "function"
    },
    {
      "inputs": [
        {
          "internalType": "address",
          "name": "_studentAddress",
          "type": "address"
        },
        {
          "internalType": "string",
          "name": "_firstName",
          "type": "string"
        }
      ],
      "name": "addStudent",
      "outputs": [],
      "stateMutability": "nonpayable",
      "type": "function"
    },
    {
      "inputs": [
        {
          "internalType": "address",
          "name": "_studentAddress",
          "type": "address"
        },
        {
          "internalType": "uint256",
          "name": "_grade",
          "type": "uint256"
        }
      ],
      "name": "addGrade",
      "outputs": [],
      "stateMutability": "nonpayable",
      "type": "function"
    },
    {
      "inputs": [
        {
          "internalType": "address",
          "name": "_studentAddress",
          "type": "address"
        }
      ],
      "name": "getOneStudent",
      "outputs": [
        {
          "internalType": "enum SchoolManager.State",
          "name": "",
          "type": "uint8"
        },
        {
          "internalType": "uint256",
          "name": "grade",
          "type": "uint256"
        },
        {
          "internalType": "string",
          "name": "firstName",
          "type": "string"
        }
      ],
      "stateMutability": "view",
      "type": "function"
    },
    {
      "inputs": [],
      "name": "getListStudents",
      "outputs": [
        {
          "internalType": "address[]",
          "name": "",
          "type": "address[]"
        }
      ],
      "stateMutability": "view",
      "type": "function"
    },
    {
      "inputs": [],
      "name": "getStudentCount",
      "outputs": [
        {
          "internalType": "uint256",
          "name": "",
          "type": "uint256"
        }
      ],
      "stateMutability": "view",
      "type": "function"
    },
    {
      "inputs": [],
      "name": "sendDegreeNFT",
      "outputs": [],
      "stateMutability": "nonpayable",
      "type": "function"
    }
  ],
  "bytecode": "0x608060405234801561001057600080fd5b5061002d61002261003260201b60201c565b61003a60201b60201c565b6100fe565b600033905090565b60008060009054906101000a900473ffffffffffffffffffffffffffffffffffffffff169050816000806101000a81548173ffffffffffffffffffffffffffffffffffffffff021916908373ffffffffffffffffffffffffffffffffffffffff1602179055508173ffffffffffffffffffffffffffffffffffffffff168173ffffffffffffffffffffffffffffffffffffffff167f8be0079c531659141344cd1fd0a4f28419497f9722a3daafe3b4186f6b6457e060405160405180910390a35050565b611aaa8061010d6000396000f3fe608060405234801561001057600080fd5b50600436106100935760003560e01c80638af45ef2116100665780638af45ef21461010e5780638da5cb5b1461012c578063bd78ab581461014a578063ee1126e914610166578063f2fde38b1461017057610093565b806334e91a1c1461009857806341e0c407146100ca5780635e8b8091146100e8578063715018a614610104575b600080fd5b6100b260048036038101906100ad9190611188565b61018c565b6040516100c193929190611474565b60405180910390f35b6100d2610413565b6040516100df91906115a2565b60405180910390f35b61010260048036038101906100fd91906111b5565b61041d565b005b61010c610799565b005b610116610821565b6040516101239190611429565b60405180910390f35b61013461091b565b604051610141919061140e565b60405180910390f35b610164600480360381019061015f9190611211565b610944565b005b61016e610e09565b005b61018a60048036038101906101859190611188565b610e87565b005b60008060606000600160008673ffffffffffffffffffffffffffffffffffffffff1673ffffffffffffffffffffffffffffffffffffffff16815260200190815260200160002060000180546101e090611734565b80601f016020809104026020016040519081016040528092919081815260200182805461020c90611734565b80156102595780601f1061022e57610100808354040283529160200191610259565b820191906000526020600020905b81548152906001019060200180831161023c57829003601f168201915b5050505050905060008151116102a4576040517f08c379a000000000000000000000000000000000000000000000000000000000815260040161029b90611502565b60405180910390fd5b600160008673ffffffffffffffffffffffffffffffffffffffff1673ffffffffffffffffffffffffffffffffffffffff16815260200190815260200160002060020160149054906101000a900460ff16600160008773ffffffffffffffffffffffffffffffffffffffff1673ffffffffffffffffffffffffffffffffffffffff16815260200190815260200160002060010154600160008873ffffffffffffffffffffffffffffffffffffffff1673ffffffffffffffffffffffffffffffffffffffff16815260200190815260200160002060000180805461038590611734565b80601f01602080910402602001604051908101604052809291908181526020018280546103b190611734565b80156103fe5780601f106103d3576101008083540402835291602001916103fe565b820191906000526020600020905b8154815290600101906020018083116103e157829003601f168201915b50505050509050935093509350509193909250565b6000600354905090565b610425610f7f565b73ffffffffffffffffffffffffffffffffffffffff1661044361091b565b73ffffffffffffffffffffffffffffffffffffffff1614610499576040517f08c379a000000000000000000000000000000000000000000000000000000000815260040161049090611542565b60405180910390fd5b6000600160008473ffffffffffffffffffffffffffffffffffffffff1673ffffffffffffffffffffffffffffffffffffffff16815260200190815260200160002060000180546104e890611734565b80601f016020809104026020016040519081016040528092919081815260200182805461051490611734565b80156105615780601f1061053657610100808354040283529160200191610561565b820191906000526020600020905b81548152906001019060200180831161054457829003601f168201915b5050505050905060008151146105ac576040517f08c379a00000000000000000000000000000000000000000000000000000000081526004016105a390611522565b60405180910390fd5b81600160008573ffffffffffffffffffffffffffffffffffffffff1673ffffffffffffffffffffffffffffffffffffffff168152602001908152602001600020600001908051906020019061060292919061104b565b5082600160008573ffffffffffffffffffffffffffffffffffffffff1673ffffffffffffffffffffffffffffffffffffffff16815260200190815260200160002060020160006101000a81548173ffffffffffffffffffffffffffffffffffffffff021916908373ffffffffffffffffffffffffffffffffffffffff1602179055508260026000600354815260200190815260200160002060006101000a81548173ffffffffffffffffffffffffffffffffffffffff021916908373ffffffffffffffffffffffffffffffffffffffff1602179055506000600160008573ffffffffffffffffffffffffffffffffffffffff1673ffffffffffffffffffffffffffffffffffffffff16815260200190815260200160002060020160146101000a81548160ff0219169083600181111561073e5761073d61180f565b5b02179055506003600081548092919061075690611797565b91905055507f58440780b19d050b89fd71046a2ab4cf86ab3f11229f9b27d531f6e030ac6fa6828460405161078c9291906114b2565b60405180910390a1505050565b6107a1610f7f565b73ffffffffffffffffffffffffffffffffffffffff166107bf61091b565b73ffffffffffffffffffffffffffffffffffffffff1614610815576040517f08c379a000000000000000000000000000000000000000000000000000000000815260040161080c90611542565b60405180910390fd5b61081f6000610f87565b565b6060600060035467ffffffffffffffff8111156108415761084061189c565b5b60405190808252806020026020018201604052801561086f5781602001602082028036833780820191505090505b50905060005b600354811015610913576002600082815260200190815260200160002060009054906101000a900473ffffffffffffffffffffffffffffffffffffffff168282815181106108c6576108c561186d565b5b602002602001019073ffffffffffffffffffffffffffffffffffffffff16908173ffffffffffffffffffffffffffffffffffffffff1681525050808061090b90611797565b915050610875565b508091505090565b60008060009054906101000a900473ffffffffffffffffffffffffffffffffffffffff16905090565b61094c610f7f565b73ffffffffffffffffffffffffffffffffffffffff1661096a61091b565b73ffffffffffffffffffffffffffffffffffffffff16146109c0576040517f08c379a00000000000000000000000000000000000000000000000000000000081526004016109b790611542565b60405180910390fd5b6000600160008473ffffffffffffffffffffffffffffffffffffffff1673ffffffffffffffffffffffffffffffffffffffff1681526020019081526020016000206000018054610a0f90611734565b80601f0160208091040260200160405190810160405280929190818152602001828054610a3b90611734565b8015610a885780601f10610a5d57610100808354040283529160200191610a88565b820191906000526020600020905b815481529060010190602001808311610a6b57829003601f168201915b505050505090506000815111610ad3576040517f08c379a0000000000000000000000000000000000000000000000000000000008152600401610aca90611582565b60405180910390fd5b6000600160008573ffffffffffffffffffffffffffffffffffffffff1673ffffffffffffffffffffffffffffffffffffffff1681526020019081526020016000206001015414610b58576040517f08c379a0000000000000000000000000000000000000000000000000000000008152600401610b4f90611562565b60405180910390fd5b81600160008573ffffffffffffffffffffffffffffffffffffffff1673ffffffffffffffffffffffffffffffffffffffff16815260200190815260200160002060010181905550600a8210610cd7577f2b39d850d05305b5ce45dddc8ca96448de078481f3366ae5554f0a3bf9e374fb8284604051610bd89291906115bd565b60405180910390a160018060008573ffffffffffffffffffffffffffffffffffffffff1673ffffffffffffffffffffffffffffffffffffffff16815260200190815260200160002060020160146101000a81548160ff02191690836001811115610c4557610c4461180f565b5b02179055507f92d7e7b1e714a1a53a7ec58535218a2b5be68ef6b963cb5d41c07d57c624f1ee600160008573ffffffffffffffffffffffffffffffffffffffff1673ffffffffffffffffffffffffffffffffffffffff16815260200190815260200160002060020160149054906101000a900460ff1684604051610cca92919061144b565b60405180910390a1610e04565b7f2b39d850d05305b5ce45dddc8ca96448de078481f3366ae5554f0a3bf9e374fb8284604051610d089291906115bd565b60405180910390a16000600160008573ffffffffffffffffffffffffffffffffffffffff1673ffffffffffffffffffffffffffffffffffffffff16815260200190815260200160002060020160146101000a81548160ff02191690836001811115610d7657610d7561180f565b5b02179055507f92d7e7b1e714a1a53a7ec58535218a2b5be68ef6b963cb5d41c07d57c624f1ee600160008573ffffffffffffffffffffffffffffffffffffffff1673ffffffffffffffffffffffffffffffffffffffff16815260200190815260200160002060020160149054906101000a900460ff1684604051610dfb92919061144b565b60405180910390a15b505050565b610e11610f7f565b73ffffffffffffffffffffffffffffffffffffffff16610e2f61091b565b73ffffffffffffffffffffffffffffffffffffffff1614610e85576040517f08c379a0000000000000000000000000000000000000000000000000000000008152600401610e7c90611542565b60405180910390fd5b565b610e8f610f7f565b73ffffffffffffffffffffffffffffffffffffffff16610ead61091b565b73ffffffffffffffffffffffffffffffffffffffff1614610f03576040517f08c379a0000000000000000000000000000000000000000000000000000000008152600401610efa90611542565b60405180910390fd5b600073ffffffffffffffffffffffffffffffffffffffff168173ffffffffffffffffffffffffffffffffffffffff161415610f73576040517f08c379a0000000000000000000000000000000000000000000000000000000008152600401610f6a906114e2565b60405180910390fd5b610f7c81610f87565b50565b600033905090565b60008060009054906101000a900473ffffffffffffffffffffffffffffffffffffffff169050816000806101000a81548173ffffffffffffffffffffffffffffffffffffffff021916908373ffffffffffffffffffffffffffffffffffffffff1602179055508173ffffffffffffffffffffffffffffffffffffffff168173ffffffffffffffffffffffffffffffffffffffff167f8be0079c531659141344cd1fd0a4f28419497f9722a3daafe3b4186f6b6457e060405160405180910390a35050565b82805461105790611734565b90600052602060002090601f01602090048101928261107957600085556110c0565b82601f1061109257805160ff19168380011785556110c0565b828001600101855582156110c0579182015b828111156110bf5782518255916020019190600101906110a4565b5b5090506110cd91906110d1565b5090565b5b808211156110ea5760008160009055506001016110d2565b5090565b60006111016110fc8461160b565b6115e6565b90508281526020810184848401111561111d5761111c6118d0565b5b6111288482856116f2565b509392505050565b60008135905061113f81611a46565b92915050565b600082601f83011261115a576111596118cb565b5b813561116a8482602086016110ee565b91505092915050565b60008135905061118281611a5d565b92915050565b60006020828403121561119e5761119d6118da565b5b60006111ac84828501611130565b91505092915050565b600080604083850312156111cc576111cb6118da565b5b60006111da85828601611130565b925050602083013567ffffffffffffffff8111156111fb576111fa6118d5565b5b61120785828601611145565b9150509250929050565b60008060408385031215611228576112276118da565b5b600061123685828601611130565b925050602061124785828601611173565b9150509250929050565b600061125d8383611269565b60208301905092915050565b61127281611691565b82525050565b61128181611691565b82525050565b60006112928261164c565b61129c818561166f565b93506112a78361163c565b8060005b838110156112d85781516112bf8882611251565b97506112ca83611662565b9250506001810190506112ab565b5085935050505092915050565b6112ee816116e0565b82525050565b60006112ff82611657565b6113098185611680565b9350611319818560208601611701565b611322816118df565b840191505092915050565b600061133a602683611680565b9150611345826118f0565b604082019050919050565b600061135d601583611680565b91506113688261193f565b602082019050919050565b6000611380601a83611680565b915061138b82611968565b602082019050919050565b60006113a3602083611680565b91506113ae82611991565b602082019050919050565b60006113c6601d83611680565b91506113d1826119ba565b602082019050919050565b60006113e9602183611680565b91506113f4826119e3565b604082019050919050565b611408816116d6565b82525050565b60006020820190506114236000830184611278565b92915050565b600060208201905081810360008301526114438184611287565b905092915050565b600060408201905061146060008301856112e5565b61146d6020830184611278565b9392505050565b600060608201905061148960008301866112e5565b61149660208301856113ff565b81810360408301526114a881846112f4565b9050949350505050565b600060408201905081810360008301526114cc81856112f4565b90506114db6020830184611278565b9392505050565b600060208201905081810360008301526114fb8161132d565b9050919050565b6000602082019050818103600083015261151b81611350565b9050919050565b6000602082019050818103600083015261153b81611373565b9050919050565b6000602082019050818103600083015261155b81611396565b9050919050565b6000602082019050818103600083015261157b816113b9565b9050919050565b6000602082019050818103600083015261159b816113dc565b9050919050565b60006020820190506115b760008301846113ff565b92915050565b60006040820190506115d260008301856113ff565b6115df6020830184611278565b9392505050565b60006115f0611601565b90506115fc8282611766565b919050565b6000604051905090565b600067ffffffffffffffff8211156116265761162561189c565b5b61162f826118df565b9050602081019050919050565b6000819050602082019050919050565b600081519050919050565b600081519050919050565b6000602082019050919050565b600082825260208201905092915050565b600082825260208201905092915050565b600061169c826116b6565b9050919050565b60008190506116b182611a32565b919050565b600073ffffffffffffffffffffffffffffffffffffffff82169050919050565b6000819050919050565b60006116eb826116a3565b9050919050565b82818337600083830152505050565b60005b8381101561171f578082015181840152602081019050611704565b8381111561172e576000848401525b50505050565b6000600282049050600182168061174c57607f821691505b602082108114156117605761175f61183e565b5b50919050565b61176f826118df565b810181811067ffffffffffffffff8211171561178e5761178d61189c565b5b80604052505050565b60006117a2826116d6565b91507fffffffffffffffffffffffffffffffffffffffffffffffffffffffffffffffff8214156117d5576117d46117e0565b5b600182019050919050565b7f4e487b7100000000000000000000000000000000000000000000000000000000600052601160045260246000fd5b7f4e487b7100000000000000000000000000000000000000000000000000000000600052602160045260246000fd5b7f4e487b7100000000000000000000000000000000000000000000000000000000600052602260045260246000fd5b7f4e487b7100000000000000000000000000000000000000000000000000000000600052603260045260246000fd5b7f4e487b7100000000000000000000000000000000000000000000000000000000600052604160045260246000fd5b600080fd5b600080fd5b600080fd5b600080fd5b6000601f19601f8301169050919050565b7f4f776e61626c653a206e6577206f776e657220697320746865207a65726f206160008201527f6464726573730000000000000000000000000000000000000000000000000000602082015250565b7f53747564656e7420646f65736e27742065786973740000000000000000000000600082015250565b7f546869732073747564656e7420616c7265616479206578697374000000000000600082015250565b7f4f776e61626c653a2063616c6c6572206973206e6f7420746865206f776e6572600082015250565b7f53747564656e7420616c72656164792072656365697665206772616465000000600082015250565b7f466972737420796f75206e65656420746f20616464207468652073747564656e60008201527f7400000000000000000000000000000000000000000000000000000000000000602082015250565b60028110611a4357611a4261180f565b5b50565b611a4f81611691565b8114611a5a57600080fd5b50565b611a66816116d6565b8114611a7157600080fd5b5056fea2646970667358221220dcda167eff8a5772166c4d549d6cabe784aa694973041740f104244042baecbe64736f6c63430008070033",
  "immutableReferences": {},
  "source": "// SPDX-License-Identifier: MIT\npragma solidity ^0.8.7;\n\nimport \"@openzeppelin/contracts/access/Ownable.sol\";\n\n/// @title Contract for manage grade's student\n/// @author Sylvain Sigonnez\n/// @notice Allows a teacher to give grade to a student , and student to see their grades and if they are graduates\n/// @dev Send a NFT degree to a graduate student\ncontract SchoolManager is Ownable{\n\n    constructor() { \n    }\n    \n    struct Student {\n        string firstName;\n        uint grade;\n        address studentAddress;\n        State status;\n    }\n    \n    mapping(address => Student) students;\n    mapping(uint => address) studentsAddresses;\n    uint studentCount; \n\n    enum State { studentNotGraduate, studentGraduate }\n\n    /// @notice Emitted when a new student is added\n    /// @param firstName of student \n    /// @param studentAddress of student \n    event LogStudentAdded(string firstName , address studentAddress);\n    /// @notice Emitted when a new grade to a student is added\n    /// @param grade for the work of a student \n    /// @param studentAddress of student \n    event LogGradeAdded(uint grade , address studentAddress);\n    /// @notice Emitted when a new status is given to a student \n    /// @param status of the student according to the grade for his work \n    /// @param studentAddress of student \n    event LogStudentGraduate(State status , address studentAddress);\n\n    // @notice It will add a student if doesn't already exist\n    // @param _studenAddress the address of the new student\n    // @param _firstName the firstName of the new student\n    // @param _lasttName the firstName of the new student\n    function addStudent(address _studentAddress, string memory _firstName) external onlyOwner {\n        bytes memory firstNameOfAddress = bytes(students[_studentAddress].firstName);\n        require(firstNameOfAddress.length == 0, \"This student already exist\");\n        students[_studentAddress].firstName = _firstName;\n        students[_studentAddress].studentAddress = _studentAddress;\n        studentsAddresses[studentCount]= _studentAddress;\n        students[_studentAddress].status = State.studentNotGraduate;\n        studentCount++;\n        emit LogStudentAdded(_firstName, _studentAddress);\n    }\n\n    // @notice It will add grade to a student if the student is already create\n    // @param _studenAddress the address of the new student\n    // @param _grade the grade of the work of the student\n    function addGrade(address _studentAddress, uint _grade) external onlyOwner {\n        bytes memory firstNameOfAddress = bytes(students[_studentAddress].firstName);\n        require(firstNameOfAddress.length > 0, \"First you need to add the student\");\n        require(students[_studentAddress].grade == 0, \"Student already receive grade\");\n        students[_studentAddress].grade = _grade;\n        if(_grade >= 10) {\n        emit LogGradeAdded(_grade, _studentAddress);\n        students[_studentAddress].status = State.studentGraduate;\n        emit LogStudentGraduate(students[_studentAddress].status, _studentAddress);\n        } else {\n        emit LogGradeAdded(_grade, _studentAddress);\n        students[_studentAddress].status = State.studentNotGraduate;\n        emit LogStudentGraduate(students[_studentAddress].status, _studentAddress);\n        }\n    }\n    \n    // @notice It will get the grade, the status and the firstName of the Student\n    // @param _studenAddress the address of the student\n    // @return the grade, the status and the firstName of the student\n    function getOneStudent(address _studentAddress) public view returns(State, uint grade, string memory firstName ){\n        bytes memory studentFirstName = bytes(students[_studentAddress].firstName);\n        require(studentFirstName.length > 0, \"Student doesn't exist\");\n        return (students[_studentAddress].status, students[_studentAddress].grade, students[_studentAddress].firstName);\n    }\n\n    // @notice It will get the list of the address of all register student\n    // @param emppty array of address \n    // @return the list of the address of all register student\n    function getListStudents() public view returns (address[] memory){\n        address[] memory ret = new address[](studentCount);\n        for (uint i = 0; i < studentCount; i++) {\n            ret[i] = studentsAddresses[i];\n        }\n        return ret;\n    }\n    \n    // @notice It will get the number of all register student\n    // @param empty uint \n    // @return the count of all register student\n    function getStudentCount() public view returns (uint){\n        return studentCount;\n    }\n\n    /// @notice Send a NFT degree\n    /// @dev Only the owner of the contract can call this\n    function sendDegreeNFT () external onlyOwner {\n        // TODO: Send degree to student have graduate\n    }\n    \n}\n",
  "sourcePath": "/Users/sylvainsigonnez/git/schoolManager/back/contracts/SchoolManager.sol",
  "compiler": {
    "name": "solc",
    "version": "0.8.7+commit.e28d00a7.Emscripten.clang"
  },
  "schemaVersion": "3.4.3",
  "updatedAt": "2021-11-25T14:53:32.684Z",
  "devdoc": {
    "author": "Sylvain Sigonnez",
    "details": "Send a NFT degree to a graduate student",
    "events": {
      "LogGradeAdded(uint256,address)": {
        "params": {
          "grade": "for the work of a student ",
          "studentAddress": "of student "
        }
      },
      "LogStudentAdded(string,address)": {
        "params": {
          "firstName": "of student ",
          "studentAddress": "of student "
        }
      },
      "LogStudentGraduate(uint8,address)": {
        "params": {
          "status": "of the student according to the grade for his work ",
          "studentAddress": "of student "
        }
      }
    },
    "kind": "dev",
    "methods": {
      "owner()": {
        "details": "Returns the address of the current owner."
      },
      "renounceOwnership()": {
        "details": "Leaves the contract without owner. It will not be possible to call `onlyOwner` functions anymore. Can only be called by the current owner. NOTE: Renouncing ownership will leave the contract without an owner, thereby removing any functionality that is only available to the owner."
      },
      "sendDegreeNFT()": {
        "details": "Only the owner of the contract can call this"
      },
      "transferOwnership(address)": {
        "details": "Transfers ownership of the contract to a new account (`newOwner`). Can only be called by the current owner."
      }
    },
    "title": "Contract for manage grade's student",
    "version": 1
  },
  "userdoc": {
    "events": {
      "LogGradeAdded(uint256,address)": {
        "notice": "Emitted when a new grade to a student is added"
      },
      "LogStudentAdded(string,address)": {
        "notice": "Emitted when a new student is added"
      },
      "LogStudentGraduate(uint8,address)": {
        "notice": "Emitted when a new status is given to a student "
      }
    },
    "kind": "user",
    "methods": {
      "sendDegreeNFT()": {
        "notice": "Send a NFT degree"
      }
    },
    "notice": "Allows a teacher to give grade to a student , and student to see their grades and if they are graduates",
    "version": 1
  }
}