{
  "contractName": "SchoolManager",
  "abi": [
    {
      "inputs": [],
      "stateMutability": "nonpayable",
      "type": "constructor"
    },
    {
      "anonymous": false,
      "inputs": [
        {
          "indexed": false,
          "internalType": "uint256",
          "name": "grade",
          "type": "uint256"
        },
        {
          "indexed": false,
          "internalType": "address",
          "name": "studentAddress",
          "type": "address"
        }
      ],
      "name": "LogGradeAdded",
      "type": "event"
    },
    {
      "anonymous": false,
      "inputs": [
        {
          "indexed": false,
          "internalType": "string",
          "name": "firstName",
          "type": "string"
        },
        {
          "indexed": false,
          "internalType": "address",
          "name": "studentAddress",
          "type": "address"
        }
      ],
      "name": "LogStudentAdded",
      "type": "event"
    },
    {
      "anonymous": false,
      "inputs": [
        {
          "indexed": false,
          "internalType": "enum SchoolManager.State",
          "name": "status",
          "type": "uint8"
        },
        {
          "indexed": false,
          "internalType": "address",
          "name": "studentAddress",
          "type": "address"
        }
      ],
      "name": "LogStudentGraduate",
      "type": "event"
    },
    {
      "anonymous": false,
      "inputs": [
        {
          "indexed": true,
          "internalType": "address",
          "name": "previousOwner",
          "type": "address"
        },
        {
          "indexed": true,
          "internalType": "address",
          "name": "newOwner",
          "type": "address"
        }
      ],
      "name": "OwnershipTransferred",
      "type": "event"
    },
    {
      "inputs": [],
      "name": "owner",
      "outputs": [
        {
          "internalType": "address",
          "name": "",
          "type": "address"
        }
      ],
      "stateMutability": "view",
      "type": "function",
      "constant": true
    },
    {
      "inputs": [],
      "name": "renounceOwnership",
      "outputs": [],
      "stateMutability": "nonpayable",
      "type": "function"
    },
    {
      "inputs": [
        {
          "internalType": "address",
          "name": "newOwner",
          "type": "address"
        }
      ],
      "name": "transferOwnership",
      "outputs": [],
      "stateMutability": "nonpayable",
      "type": "function"
    },
    {
      "inputs": [
        {
          "internalType": "address",
          "name": "_studentAddress",
          "type": "address"
        },
        {
          "internalType": "string",
          "name": "_firstName",
          "type": "string"
        },
        {
          "internalType": "string",
          "name": "_lastName",
          "type": "string"
        }
      ],
      "name": "addStudent",
      "outputs": [],
      "stateMutability": "nonpayable",
      "type": "function"
    },
    {
      "inputs": [
        {
          "internalType": "address",
          "name": "_studentAddress",
          "type": "address"
        },
        {
          "internalType": "uint256",
          "name": "_grade",
          "type": "uint256"
        }
      ],
      "name": "addGrade",
      "outputs": [],
      "stateMutability": "nonpayable",
      "type": "function"
    },
    {
      "inputs": [
        {
          "internalType": "address",
          "name": "_studentAddress",
          "type": "address"
        }
      ],
      "name": "getOneStudent",
      "outputs": [
        {
          "internalType": "enum SchoolManager.State",
          "name": "",
          "type": "uint8"
        },
        {
          "internalType": "uint256",
          "name": "grade",
          "type": "uint256"
        },
        {
          "internalType": "string",
          "name": "firstName",
          "type": "string"
        }
      ],
      "stateMutability": "view",
      "type": "function",
      "constant": true
    },
    {
      "inputs": [],
      "name": "getListStudents",
      "outputs": [
        {
          "internalType": "address[]",
          "name": "",
          "type": "address[]"
        }
      ],
      "stateMutability": "view",
      "type": "function",
      "constant": true
    },
    {
      "inputs": [],
      "name": "getStudentCount",
      "outputs": [
        {
          "internalType": "uint256",
          "name": "",
          "type": "uint256"
        }
      ],
      "stateMutability": "view",
      "type": "function",
      "constant": true
    },
    {
      "inputs": [],
      "name": "sendDegreeNFT",
      "outputs": [],
      "stateMutability": "nonpayable",
      "type": "function"
    }
  ],
  "bytecode": "0x608060405234801561001057600080fd5b5061002d61002261003260201b60201c565b61003a60201b60201c565b6100fe565b600033905090565b60008060009054906101000a900473ffffffffffffffffffffffffffffffffffffffff169050816000806101000a81548173ffffffffffffffffffffffffffffffffffffffff021916908373ffffffffffffffffffffffffffffffffffffffff1602179055508173ffffffffffffffffffffffffffffffffffffffff168173ffffffffffffffffffffffffffffffffffffffff167f8be0079c531659141344cd1fd0a4f28419497f9722a3daafe3b4186f6b6457e060405160405180910390a35050565b611b318061010d6000396000f3fe608060405234801561001057600080fd5b50600436106100935760003560e01c80638af45ef2116100665780638af45ef21461010e5780638da5cb5b1461012c578063bd78ab581461014a578063ee1126e914610166578063f2fde38b1461017057610093565b806321a829c61461009857806334e91a1c146100b457806341e0c407146100e6578063715018a614610104575b600080fd5b6100b260048036038101906100ad919061120d565b61018c565b005b6100ce60048036038101906100c991906111e0565b610560565b6040516100dd939291906114fb565b60405180910390f35b6100ee6107e7565b6040516100fb9190611629565b60405180910390f35b61010c6107f1565b005b610116610879565b60405161012391906114b0565b60405180910390f35b610134610973565b6040516101419190611495565b60405180910390f35b610164600480360381019061015f9190611298565b61099c565b005b61016e610e61565b005b61018a600480360381019061018591906111e0565b610edf565b005b610194610fd7565b73ffffffffffffffffffffffffffffffffffffffff166101b2610973565b73ffffffffffffffffffffffffffffffffffffffff1614610208576040517f08c379a00000000000000000000000000000000000000000000000000000000081526004016101ff906115c9565b60405180910390fd5b6000600160008573ffffffffffffffffffffffffffffffffffffffff1673ffffffffffffffffffffffffffffffffffffffff1681526020019081526020016000206000018054610257906117bb565b80601f0160208091040260200160405190810160405280929190818152602001828054610283906117bb565b80156102d05780601f106102a5576101008083540402835291602001916102d0565b820191906000526020600020905b8154815290600101906020018083116102b357829003601f168201915b50505050509050600081511461031b576040517f08c379a0000000000000000000000000000000000000000000000000000000008152600401610312906115a9565b60405180910390fd5b82600160008673ffffffffffffffffffffffffffffffffffffffff1673ffffffffffffffffffffffffffffffffffffffff16815260200190815260200160002060000190805190602001906103719291906110a3565b5081600160008673ffffffffffffffffffffffffffffffffffffffff1673ffffffffffffffffffffffffffffffffffffffff16815260200190815260200160002060010190805190602001906103c89291906110a3565b5083600160008673ffffffffffffffffffffffffffffffffffffffff1673ffffffffffffffffffffffffffffffffffffffff16815260200190815260200160002060030160006101000a81548173ffffffffffffffffffffffffffffffffffffffff021916908373ffffffffffffffffffffffffffffffffffffffff1602179055508360026000600354815260200190815260200160002060006101000a81548173ffffffffffffffffffffffffffffffffffffffff021916908373ffffffffffffffffffffffffffffffffffffffff1602179055506000600160008673ffffffffffffffffffffffffffffffffffffffff1673ffffffffffffffffffffffffffffffffffffffff16815260200190815260200160002060030160146101000a81548160ff0219169083600181111561050457610503611896565b5b02179055506003600081548092919061051c9061181e565b91905055507f58440780b19d050b89fd71046a2ab4cf86ab3f11229f9b27d531f6e030ac6fa68385604051610552929190611539565b60405180910390a150505050565b60008060606000600160008673ffffffffffffffffffffffffffffffffffffffff1673ffffffffffffffffffffffffffffffffffffffff16815260200190815260200160002060000180546105b4906117bb565b80601f01602080910402602001604051908101604052809291908181526020018280546105e0906117bb565b801561062d5780601f106106025761010080835404028352916020019161062d565b820191906000526020600020905b81548152906001019060200180831161061057829003601f168201915b505050505090506000815111610678576040517f08c379a000000000000000000000000000000000000000000000000000000000815260040161066f90611589565b60405180910390fd5b600160008673ffffffffffffffffffffffffffffffffffffffff1673ffffffffffffffffffffffffffffffffffffffff16815260200190815260200160002060030160149054906101000a900460ff16600160008773ffffffffffffffffffffffffffffffffffffffff1673ffffffffffffffffffffffffffffffffffffffff16815260200190815260200160002060020154600160008873ffffffffffffffffffffffffffffffffffffffff1673ffffffffffffffffffffffffffffffffffffffff168152602001908152602001600020600001808054610759906117bb565b80601f0160208091040260200160405190810160405280929190818152602001828054610785906117bb565b80156107d25780601f106107a7576101008083540402835291602001916107d2565b820191906000526020600020905b8154815290600101906020018083116107b557829003601f168201915b50505050509050935093509350509193909250565b6000600354905090565b6107f9610fd7565b73ffffffffffffffffffffffffffffffffffffffff16610817610973565b73ffffffffffffffffffffffffffffffffffffffff161461086d576040517f08c379a0000000000000000000000000000000000000000000000000000000008152600401610864906115c9565b60405180910390fd5b6108776000610fdf565b565b6060600060035467ffffffffffffffff81111561089957610898611923565b5b6040519080825280602002602001820160405280156108c75781602001602082028036833780820191505090505b50905060005b60035481101561096b576002600082815260200190815260200160002060009054906101000a900473ffffffffffffffffffffffffffffffffffffffff1682828151811061091e5761091d6118f4565b5b602002602001019073ffffffffffffffffffffffffffffffffffffffff16908173ffffffffffffffffffffffffffffffffffffffff168152505080806109639061181e565b9150506108cd565b508091505090565b60008060009054906101000a900473ffffffffffffffffffffffffffffffffffffffff16905090565b6109a4610fd7565b73ffffffffffffffffffffffffffffffffffffffff166109c2610973565b73ffffffffffffffffffffffffffffffffffffffff1614610a18576040517f08c379a0000000000000000000000000000000000000000000000000000000008152600401610a0f906115c9565b60405180910390fd5b6000600160008473ffffffffffffffffffffffffffffffffffffffff1673ffffffffffffffffffffffffffffffffffffffff1681526020019081526020016000206000018054610a67906117bb565b80601f0160208091040260200160405190810160405280929190818152602001828054610a93906117bb565b8015610ae05780601f10610ab557610100808354040283529160200191610ae0565b820191906000526020600020905b815481529060010190602001808311610ac357829003601f168201915b505050505090506000815111610b2b576040517f08c379a0000000000000000000000000000000000000000000000000000000008152600401610b2290611609565b60405180910390fd5b6000600160008573ffffffffffffffffffffffffffffffffffffffff1673ffffffffffffffffffffffffffffffffffffffff1681526020019081526020016000206002015414610bb0576040517f08c379a0000000000000000000000000000000000000000000000000000000008152600401610ba7906115e9565b60405180910390fd5b81600160008573ffffffffffffffffffffffffffffffffffffffff1673ffffffffffffffffffffffffffffffffffffffff16815260200190815260200160002060020181905550600a8210610d2f577f2b39d850d05305b5ce45dddc8ca96448de078481f3366ae5554f0a3bf9e374fb8284604051610c30929190611644565b60405180910390a160018060008573ffffffffffffffffffffffffffffffffffffffff1673ffffffffffffffffffffffffffffffffffffffff16815260200190815260200160002060030160146101000a81548160ff02191690836001811115610c9d57610c9c611896565b5b02179055507f92d7e7b1e714a1a53a7ec58535218a2b5be68ef6b963cb5d41c07d57c624f1ee600160008573ffffffffffffffffffffffffffffffffffffffff1673ffffffffffffffffffffffffffffffffffffffff16815260200190815260200160002060030160149054906101000a900460ff1684604051610d229291906114d2565b60405180910390a1610e5c565b7f2b39d850d05305b5ce45dddc8ca96448de078481f3366ae5554f0a3bf9e374fb8284604051610d60929190611644565b60405180910390a16000600160008573ffffffffffffffffffffffffffffffffffffffff1673ffffffffffffffffffffffffffffffffffffffff16815260200190815260200160002060030160146101000a81548160ff02191690836001811115610dce57610dcd611896565b5b02179055507f92d7e7b1e714a1a53a7ec58535218a2b5be68ef6b963cb5d41c07d57c624f1ee600160008573ffffffffffffffffffffffffffffffffffffffff1673ffffffffffffffffffffffffffffffffffffffff16815260200190815260200160002060030160149054906101000a900460ff1684604051610e539291906114d2565b60405180910390a15b505050565b610e69610fd7565b73ffffffffffffffffffffffffffffffffffffffff16610e87610973565b73ffffffffffffffffffffffffffffffffffffffff1614610edd576040517f08c379a0000000000000000000000000000000000000000000000000000000008152600401610ed4906115c9565b60405180910390fd5b565b610ee7610fd7565b73ffffffffffffffffffffffffffffffffffffffff16610f05610973565b73ffffffffffffffffffffffffffffffffffffffff1614610f5b576040517f08c379a0000000000000000000000000000000000000000000000000000000008152600401610f52906115c9565b60405180910390fd5b600073ffffffffffffffffffffffffffffffffffffffff168173ffffffffffffffffffffffffffffffffffffffff161415610fcb576040517f08c379a0000000000000000000000000000000000000000000000000000000008152600401610fc290611569565b60405180910390fd5b610fd481610fdf565b50565b600033905090565b60008060009054906101000a900473ffffffffffffffffffffffffffffffffffffffff169050816000806101000a81548173ffffffffffffffffffffffffffffffffffffffff021916908373ffffffffffffffffffffffffffffffffffffffff1602179055508173ffffffffffffffffffffffffffffffffffffffff168173ffffffffffffffffffffffffffffffffffffffff167f8be0079c531659141344cd1fd0a4f28419497f9722a3daafe3b4186f6b6457e060405160405180910390a35050565b8280546110af906117bb565b90600052602060002090601f0160209004810192826110d15760008555611118565b82601f106110ea57805160ff1916838001178555611118565b82800160010185558215611118579182015b828111156111175782518255916020019190600101906110fc565b5b5090506111259190611129565b5090565b5b8082111561114257600081600090555060010161112a565b5090565b600061115961115484611692565b61166d565b90508281526020810184848401111561117557611174611957565b5b611180848285611779565b509392505050565b60008135905061119781611acd565b92915050565b600082601f8301126111b2576111b1611952565b5b81356111c2848260208601611146565b91505092915050565b6000813590506111da81611ae4565b92915050565b6000602082840312156111f6576111f5611961565b5b600061120484828501611188565b91505092915050565b60008060006060848603121561122657611225611961565b5b600061123486828701611188565b935050602084013567ffffffffffffffff8111156112555761125461195c565b5b6112618682870161119d565b925050604084013567ffffffffffffffff8111156112825761128161195c565b5b61128e8682870161119d565b9150509250925092565b600080604083850312156112af576112ae611961565b5b60006112bd85828601611188565b92505060206112ce858286016111cb565b9150509250929050565b60006112e483836112f0565b60208301905092915050565b6112f981611718565b82525050565b61130881611718565b82525050565b6000611319826116d3565b61132381856116f6565b935061132e836116c3565b8060005b8381101561135f57815161134688826112d8565b9750611351836116e9565b925050600181019050611332565b5085935050505092915050565b61137581611767565b82525050565b6000611386826116de565b6113908185611707565b93506113a0818560208601611788565b6113a981611966565b840191505092915050565b60006113c1602683611707565b91506113cc82611977565b604082019050919050565b60006113e4601583611707565b91506113ef826119c6565b602082019050919050565b6000611407601a83611707565b9150611412826119ef565b602082019050919050565b600061142a602083611707565b915061143582611a18565b602082019050919050565b600061144d601d83611707565b915061145882611a41565b602082019050919050565b6000611470602183611707565b915061147b82611a6a565b604082019050919050565b61148f8161175d565b82525050565b60006020820190506114aa60008301846112ff565b92915050565b600060208201905081810360008301526114ca818461130e565b905092915050565b60006040820190506114e7600083018561136c565b6114f460208301846112ff565b9392505050565b6000606082019050611510600083018661136c565b61151d6020830185611486565b818103604083015261152f818461137b565b9050949350505050565b60006040820190508181036000830152611553818561137b565b905061156260208301846112ff565b9392505050565b60006020820190508181036000830152611582816113b4565b9050919050565b600060208201905081810360008301526115a2816113d7565b9050919050565b600060208201905081810360008301526115c2816113fa565b9050919050565b600060208201905081810360008301526115e28161141d565b9050919050565b6000602082019050818103600083015261160281611440565b9050919050565b6000602082019050818103600083015261162281611463565b9050919050565b600060208201905061163e6000830184611486565b92915050565b60006040820190506116596000830185611486565b61166660208301846112ff565b9392505050565b6000611677611688565b905061168382826117ed565b919050565b6000604051905090565b600067ffffffffffffffff8211156116ad576116ac611923565b5b6116b682611966565b9050602081019050919050565b6000819050602082019050919050565b600081519050919050565b600081519050919050565b6000602082019050919050565b600082825260208201905092915050565b600082825260208201905092915050565b60006117238261173d565b9050919050565b600081905061173882611ab9565b919050565b600073ffffffffffffffffffffffffffffffffffffffff82169050919050565b6000819050919050565b60006117728261172a565b9050919050565b82818337600083830152505050565b60005b838110156117a657808201518184015260208101905061178b565b838111156117b5576000848401525b50505050565b600060028204905060018216806117d357607f821691505b602082108114156117e7576117e66118c5565b5b50919050565b6117f682611966565b810181811067ffffffffffffffff8211171561181557611814611923565b5b80604052505050565b60006118298261175d565b91507fffffffffffffffffffffffffffffffffffffffffffffffffffffffffffffffff82141561185c5761185b611867565b5b600182019050919050565b7f4e487b7100000000000000000000000000000000000000000000000000000000600052601160045260246000fd5b7f4e487b7100000000000000000000000000000000000000000000000000000000600052602160045260246000fd5b7f4e487b7100000000000000000000000000000000000000000000000000000000600052602260045260246000fd5b7f4e487b7100000000000000000000000000000000000000000000000000000000600052603260045260246000fd5b7f4e487b7100000000000000000000000000000000000000000000000000000000600052604160045260246000fd5b600080fd5b600080fd5b600080fd5b600080fd5b6000601f19601f8301169050919050565b7f4f776e61626c653a206e6577206f776e657220697320746865207a65726f206160008201527f6464726573730000000000000000000000000000000000000000000000000000602082015250565b7f53747564656e7420646f65736e27742065786973740000000000000000000000600082015250565b7f546869732073747564656e7420616c7265616479206578697374000000000000600082015250565b7f4f776e61626c653a2063616c6c6572206973206e6f7420746865206f776e6572600082015250565b7f53747564656e7420616c72656164792072656365697665206772616465000000600082015250565b7f466972737420796f75206e65656420746f20616464207468652073747564656e60008201527f7400000000000000000000000000000000000000000000000000000000000000602082015250565b60028110611aca57611ac9611896565b5b50565b611ad681611718565b8114611ae157600080fd5b50565b611aed8161175d565b8114611af857600080fd5b5056fea26469706673582212201c374db32975535babcf77ad7944d610dc683f9536984abaf4c0d6b2079656ab64736f6c63430008070033",
  "immutableReferences": {},
  "source": "// SPDX-License-Identifier: MIT\npragma solidity ^0.8.7;\n\nimport \"@openzeppelin/contracts/access/Ownable.sol\";\n\n/// @title Contract for manage grade's student\n/// @author Sylvain Sigonnez\n/// @notice Allows a teacher to give grade to a student , and student to see their grades and if they are graduates\n/// @dev Send a NFT degree to a graduate student\ncontract SchoolManager is Ownable{\n\n    constructor() { \n    }\n    \n    struct Student {\n        string firstName;\n        string lastName;\n        uint grade;\n        address studentAddress;\n        State status;\n    }\n    \n    mapping(address => Student) students;\n    mapping(uint => address) studentsAddresses;\n    uint studentCount; \n\n    enum State { studentNotGraduate, studentGraduate }\n\n    /// @notice Emitted when a new student is added\n    /// @param firstName of student \n    /// @param studentAddress of student \n    event LogStudentAdded(string firstName , address studentAddress);\n    /// @notice Emitted when a new grade to a student is added\n    /// @param grade for the work of a student \n    /// @param studentAddress of student \n    event LogGradeAdded(uint grade , address studentAddress);\n    /// @notice Emitted when a new status is given to a student \n    /// @param status of the student according to the grade for his work \n    /// @param studentAddress of student \n    event LogStudentGraduate(State status , address studentAddress);\n  \n    // @notice It will add a student if doesn't already exist\n    // @param _studenAddress the address of the new student\n    // @param _firstName the firstName of the new student\n    // @param _lasttName the firstName of the new student\n    function addStudent(address _studentAddress, string memory _firstName, string memory _lastName) external onlyOwner {\n        bytes memory firstNameOfAddress = bytes(students[_studentAddress].firstName);\n        require(firstNameOfAddress.length == 0, \"This student already exist\");\n        students[_studentAddress].firstName = _firstName;\n        students[_studentAddress].lastName = _lastName;\n        students[_studentAddress].studentAddress = _studentAddress;\n        studentsAddresses[studentCount]= _studentAddress;\n        students[_studentAddress].status = State.studentNotGraduate;\n        studentCount++;\n        emit LogStudentAdded(_firstName, _studentAddress);\n    }\n\n    // @notice It will add grade to a student if the student is already create\n    // @param _studenAddress the address of the new student\n    // @param _grade the grade of the work of the student\n    function addGrade(address _studentAddress, uint _grade) external onlyOwner {\n        bytes memory firstNameOfAddress = bytes(students[_studentAddress].firstName);\n        require(firstNameOfAddress.length > 0, \"First you need to add the student\");\n        require(students[_studentAddress].grade == 0, \"Student already receive grade\");\n        students[_studentAddress].grade = _grade;\n        if(_grade >= 10) {\n        emit LogGradeAdded(_grade, _studentAddress);\n        students[_studentAddress].status = State.studentGraduate;\n        emit LogStudentGraduate(students[_studentAddress].status, _studentAddress);\n        } else {\n        emit LogGradeAdded(_grade, _studentAddress);\n        students[_studentAddress].status = State.studentNotGraduate;\n        emit LogStudentGraduate(students[_studentAddress].status, _studentAddress);\n        }\n    }\n    \n    // @notice It will get the grade, the status and the firstName of the Student\n    // @param _studenAddress the address of the student\n    // @return the grade, the status and the firstName of the student\n    function getOneStudent(address _studentAddress) public view returns(State, uint grade, string memory firstName ){\n        bytes memory studentFirstName = bytes(students[_studentAddress].firstName);\n        require(studentFirstName.length > 0, \"Student doesn't exist\");\n        return (students[_studentAddress].status, students[_studentAddress].grade, students[_studentAddress].firstName);\n    }\n\n    // @notice It will get the list of the address of all register student\n    // @param emppty array of address \n    // @return the list of the address of all register student\n    function getListStudents() public view returns (address[] memory){\n        address[] memory ret = new address[](studentCount);\n        for (uint i = 0; i < studentCount; i++) {\n            ret[i] = studentsAddresses[i];\n        }\n        return ret;\n    }\n    \n    // @notice It will get the number of all register student\n    // @param empty uint \n    // @return the count of all register student\n    function getStudentCount() public view returns (uint){\n        return studentCount;\n    }\n\n    /// @notice Send a NFT degree\n    /// @dev Only the owner of the contract can call this\n    function sendDegreeNFT () external onlyOwner {\n        // TODO: Send degree to student have graduate\n    }\n    \n}\n",
  "sourcePath": "/Users/sylvainsigonnez/git/schoolManager/back/contracts/schoolManager.sol",
  "compiler": {
    "name": "solc",
    "version": "0.8.7+commit.e28d00a7.Emscripten.clang"
  },
  "schemaVersion": "3.4.3",
  "updatedAt": "2021-11-24T17:11:44.578Z",
  "networkType": "ethereum",
  "devdoc": {
    "author": "Sylvain Sigonnez",
    "details": "Send a NFT degree to a graduate student",
    "events": {
      "LogGradeAdded(uint256,address)": {
        "params": {
          "grade": "for the work of a student ",
          "studentAddress": "of student "
        }
      },
      "LogStudentAdded(string,address)": {
        "params": {
          "firstName": "of student ",
          "studentAddress": "of student "
        }
      },
      "LogStudentGraduate(uint8,address)": {
        "params": {
          "status": "of the student according to the grade for his work ",
          "studentAddress": "of student "
        }
      }
    },
    "kind": "dev",
    "methods": {
      "owner()": {
        "details": "Returns the address of the current owner."
      },
      "renounceOwnership()": {
        "details": "Leaves the contract without owner. It will not be possible to call `onlyOwner` functions anymore. Can only be called by the current owner. NOTE: Renouncing ownership will leave the contract without an owner, thereby removing any functionality that is only available to the owner."
      },
      "sendDegreeNFT()": {
        "details": "Only the owner of the contract can call this"
      },
      "transferOwnership(address)": {
        "details": "Transfers ownership of the contract to a new account (`newOwner`). Can only be called by the current owner."
      }
    },
    "title": "Contract for manage grade's student",
    "version": 1
  },
  "userdoc": {
    "events": {
      "LogGradeAdded(uint256,address)": {
        "notice": "Emitted when a new grade to a student is added"
      },
      "LogStudentAdded(string,address)": {
        "notice": "Emitted when a new student is added"
      },
      "LogStudentGraduate(uint8,address)": {
        "notice": "Emitted when a new status is given to a student "
      }
    },
    "kind": "user",
    "methods": {
      "sendDegreeNFT()": {
        "notice": "Send a NFT degree"
      }
    },
    "notice": "Allows a teacher to give grade to a student , and student to see their grades and if they are graduates",
    "version": 1
  }
}