{
  "contractName": "SchoolManager",
  "abi": [
    {
      "inputs": [],
      "stateMutability": "nonpayable",
      "type": "constructor"
    },
    {
      "anonymous": false,
      "inputs": [
        {
          "indexed": true,
          "internalType": "bytes32",
          "name": "role",
          "type": "bytes32"
        },
        {
          "indexed": true,
          "internalType": "bytes32",
          "name": "previousAdminRole",
          "type": "bytes32"
        },
        {
          "indexed": true,
          "internalType": "bytes32",
          "name": "newAdminRole",
          "type": "bytes32"
        }
      ],
      "name": "RoleAdminChanged",
      "type": "event"
    },
    {
      "anonymous": false,
      "inputs": [
        {
          "indexed": true,
          "internalType": "bytes32",
          "name": "role",
          "type": "bytes32"
        },
        {
          "indexed": true,
          "internalType": "address",
          "name": "account",
          "type": "address"
        },
        {
          "indexed": true,
          "internalType": "address",
          "name": "sender",
          "type": "address"
        }
      ],
      "name": "RoleGranted",
      "type": "event"
    },
    {
      "anonymous": false,
      "inputs": [
        {
          "indexed": true,
          "internalType": "bytes32",
          "name": "role",
          "type": "bytes32"
        },
        {
          "indexed": true,
          "internalType": "address",
          "name": "account",
          "type": "address"
        },
        {
          "indexed": true,
          "internalType": "address",
          "name": "sender",
          "type": "address"
        }
      ],
      "name": "RoleRevoked",
      "type": "event"
    },
    {
      "inputs": [],
      "name": "DEFAULT_ADMIN_ROLE",
      "outputs": [
        {
          "internalType": "bytes32",
          "name": "",
          "type": "bytes32"
        }
      ],
      "stateMutability": "view",
      "type": "function"
    },
    {
      "inputs": [],
      "name": "HEADMASTER_ADMIN_ROLE",
      "outputs": [
        {
          "internalType": "bytes32",
          "name": "",
          "type": "bytes32"
        }
      ],
      "stateMutability": "view",
      "type": "function"
    },
    {
      "inputs": [
        {
          "internalType": "uint256",
          "name": "",
          "type": "uint256"
        }
      ],
      "name": "ListOfStudents",
      "outputs": [
        {
          "internalType": "address",
          "name": "",
          "type": "address"
        }
      ],
      "stateMutability": "view",
      "type": "function"
    },
    {
      "inputs": [
        {
          "internalType": "uint256",
          "name": "",
          "type": "uint256"
        }
      ],
      "name": "ListOfTeachers",
      "outputs": [
        {
          "internalType": "address",
          "name": "",
          "type": "address"
        }
      ],
      "stateMutability": "view",
      "type": "function"
    },
    {
      "inputs": [],
      "name": "TEACHER_ROLE",
      "outputs": [
        {
          "internalType": "bytes32",
          "name": "",
          "type": "bytes32"
        }
      ],
      "stateMutability": "view",
      "type": "function"
    },
    {
      "inputs": [
        {
          "internalType": "bytes32",
          "name": "role",
          "type": "bytes32"
        }
      ],
      "name": "getRoleAdmin",
      "outputs": [
        {
          "internalType": "bytes32",
          "name": "",
          "type": "bytes32"
        }
      ],
      "stateMutability": "view",
      "type": "function"
    },
    {
      "inputs": [
        {
          "internalType": "bytes32",
          "name": "role",
          "type": "bytes32"
        },
        {
          "internalType": "address",
          "name": "account",
          "type": "address"
        }
      ],
      "name": "grantRole",
      "outputs": [],
      "stateMutability": "nonpayable",
      "type": "function"
    },
    {
      "inputs": [
        {
          "internalType": "bytes32",
          "name": "role",
          "type": "bytes32"
        },
        {
          "internalType": "address",
          "name": "account",
          "type": "address"
        }
      ],
      "name": "hasRole",
      "outputs": [
        {
          "internalType": "bool",
          "name": "",
          "type": "bool"
        }
      ],
      "stateMutability": "view",
      "type": "function"
    },
    {
      "inputs": [
        {
          "internalType": "bytes32",
          "name": "role",
          "type": "bytes32"
        },
        {
          "internalType": "address",
          "name": "account",
          "type": "address"
        }
      ],
      "name": "renounceRole",
      "outputs": [],
      "stateMutability": "nonpayable",
      "type": "function"
    },
    {
      "inputs": [
        {
          "internalType": "bytes32",
          "name": "role",
          "type": "bytes32"
        },
        {
          "internalType": "address",
          "name": "account",
          "type": "address"
        }
      ],
      "name": "revokeRole",
      "outputs": [],
      "stateMutability": "nonpayable",
      "type": "function"
    },
    {
      "inputs": [
        {
          "internalType": "bytes4",
          "name": "interfaceId",
          "type": "bytes4"
        }
      ],
      "name": "supportsInterface",
      "outputs": [
        {
          "internalType": "bool",
          "name": "",
          "type": "bool"
        }
      ],
      "stateMutability": "view",
      "type": "function"
    },
    {
      "inputs": [
        {
          "internalType": "address",
          "name": "_teacherAddress",
          "type": "address"
        },
        {
          "internalType": "string",
          "name": "_firstName",
          "type": "string"
        },
        {
          "internalType": "string",
          "name": "_lastName",
          "type": "string"
        }
      ],
      "name": "addTeacher",
      "outputs": [],
      "stateMutability": "nonpayable",
      "type": "function"
    },
    {
      "inputs": [
        {
          "internalType": "address",
          "name": "_studentAddress",
          "type": "address"
        },
        {
          "internalType": "string",
          "name": "_firstName",
          "type": "string"
        },
        {
          "internalType": "string",
          "name": "_lastName",
          "type": "string"
        }
      ],
      "name": "addStudent",
      "outputs": [],
      "stateMutability": "nonpayable",
      "type": "function"
    },
    {
      "inputs": [
        {
          "internalType": "address",
          "name": "_studentAddress",
          "type": "address"
        },
        {
          "internalType": "uint256",
          "name": "_grade",
          "type": "uint256"
        },
        {
          "internalType": "string",
          "name": "_subject",
          "type": "string"
        }
      ],
      "name": "addGrade",
      "outputs": [],
      "stateMutability": "nonpayable",
      "type": "function"
    },
    {
      "inputs": [
        {
          "internalType": "address",
          "name": "_studentAddress",
          "type": "address"
        }
      ],
      "name": "getGrades",
      "outputs": [
        {
          "internalType": "uint256[]",
          "name": "",
          "type": "uint256[]"
        }
      ],
      "stateMutability": "view",
      "type": "function"
    },
    {
      "inputs": [],
      "name": "showListOfTeachers",
      "outputs": [
        {
          "internalType": "address[]",
          "name": "",
          "type": "address[]"
        }
      ],
      "stateMutability": "view",
      "type": "function"
    },
    {
      "inputs": [],
      "name": "showListOfStudents",
      "outputs": [
        {
          "internalType": "address[]",
          "name": "",
          "type": "address[]"
        }
      ],
      "stateMutability": "view",
      "type": "function"
    },
    {
      "inputs": [],
      "name": "getTeachCount",
      "outputs": [
        {
          "internalType": "uint256",
          "name": "",
          "type": "uint256"
        }
      ],
      "stateMutability": "view",
      "type": "function"
    },
    {
      "inputs": [],
      "name": "getStudentCount",
      "outputs": [
        {
          "internalType": "uint256",
          "name": "",
          "type": "uint256"
        }
      ],
      "stateMutability": "view",
      "type": "function"
    }
  ],
  "bytecode": "0x60806040523480156200001157600080fd5b50620000447f4162e7cd9c11bca0f028d6e333cef78a31eeca39aad0e9fdcb03ce7feccdcc0233620000ce60201b60201c565b620000967fd16e204b8a42a15ab0ea6bb8ec1ecdfbe69f38074fc865323af19efe7d9573d97f4162e7cd9c11bca0f028d6e333cef78a31eeca39aad0e9fdcb03ce7feccdcc02620000e460201b60201c565b620000c87f4162e7cd9c11bca0f028d6e333cef78a31eeca39aad0e9fdcb03ce7feccdcc0280620000e460201b60201c565b620002c9565b620000e082826200014760201b60201c565b5050565b6000620000f7836200023860201b60201c565b905081600080858152602001908152602001600020600101819055508181847fbd79b86ffe0ab8e8776151514217cd7cacd52c909f66475c3af44e129f0b00ff60405160405180910390a4505050565b6200015982826200025760201b60201c565b6200023457600160008084815260200190815260200160002060000160008373ffffffffffffffffffffffffffffffffffffffff1673ffffffffffffffffffffffffffffffffffffffff16815260200190815260200160002060006101000a81548160ff021916908315150217905550620001d9620002c160201b60201c565b73ffffffffffffffffffffffffffffffffffffffff168173ffffffffffffffffffffffffffffffffffffffff16837f2f8788117e7eff1d82e926ec794901d17c78024a50270940304540a733656f0d60405160405180910390a45b5050565b6000806000838152602001908152602001600020600101549050919050565b600080600084815260200190815260200160002060000160008373ffffffffffffffffffffffffffffffffffffffff1673ffffffffffffffffffffffffffffffffffffffff16815260200190815260200160002060009054906101000a900460ff16905092915050565b600033905090565b61244f80620002d96000396000f3fe608060405234801561001057600080fd5b50600436106101215760003560e01c8063555eee06116100ad57806391d148541161007157806391d148541461031c578063a217fddf1461034c578063c7957a301461036a578063d547741f14610388578063f4bb08de146103a457610121565b8063555eee06146102645780635e20c843146102825780636646cb04146102b25780638346137e146102ce57806386e5c15a146102fe57610121565b80632f2ff15d116100f45780632f2ff15d146101c057806336568abe146101dc578063371bd26e146101f857806341e0c4071461022857806344057d491461024657610121565b806301ffc9a71461012657806321a829c614610156578063248a9ca3146101725780632815cace146101a2575b600080fd5b610140600480360381019061013b919061194b565b6103c0565b60405161014d9190611d06565b60405180910390f35b610170600480360381019061016b91906117e4565b61043a565b005b61018c600480360381019061018791906118de565b6106e5565b6040516101999190611d21565b60405180910390f35b6101aa610704565b6040516101b79190611e1e565b60405180910390f35b6101da60048036038101906101d5919061190b565b61070e565b005b6101f660048036038101906101f1919061190b565b610737565b005b610212600480360381019061020d9190611978565b6107ba565b60405161021f9190611ca7565b60405180910390f35b6102306107f9565b60405161023d9190611e1e565b60405180910390f35b61024e610803565b60405161025b9190611cc2565b60405180910390f35b61026c610891565b6040516102799190611cc2565b60405180910390f35b61029c60048036038101906102979190611978565b61091f565b6040516102a99190611ca7565b60405180910390f35b6102cc60048036038101906102c791906117e4565b61095e565b005b6102e860048036038101906102e391906117b7565b610c09565b6040516102f59190611ce4565b60405180910390f35b610306610d3e565b6040516103139190611d21565b60405180910390f35b6103366004803603810190610331919061190b565b610d62565b6040516103439190611d06565b60405180910390f35b610354610dcc565b6040516103619190611d21565b60405180910390f35b610372610dd3565b60405161037f9190611d21565b60405180910390f35b6103a2600480360381019061039d919061190b565b610df7565b005b6103be60048036038101906103b9919061186f565b610e20565b005b60007f7965db0b000000000000000000000000000000000000000000000000000000007bffffffffffffffffffffffffffffffffffffffffffffffffffffffff1916827bffffffffffffffffffffffffffffffffffffffffffffffffffffffff19161480610433575061043282611144565b5b9050919050565b6104647fd16e204b8a42a15ab0ea6bb8ec1ecdfbe69f38074fc865323af19efe7d9573d933610d62565b6104a3576040517f08c379a000000000000000000000000000000000000000000000000000000000815260040161049a90611d9e565b60405180910390fd5b6000600460008573ffffffffffffffffffffffffffffffffffffffff1673ffffffffffffffffffffffffffffffffffffffff16815260200190815260200160002060000180546104f2906120c2565b80601f016020809104026020016040519081016040528092919081815260200182805461051e906120c2565b801561056b5780601f106105405761010080835404028352916020019161056b565b820191906000526020600020905b81548152906001019060200180831161054e57829003601f168201915b5050505050905060008151146105b6576040517f08c379a00000000000000000000000000000000000000000000000000000000081526004016105ad90611dde565b60405180910390fd5b82600460008673ffffffffffffffffffffffffffffffffffffffff1673ffffffffffffffffffffffffffffffffffffffff168152602001908152602001600020600001908051906020019061060c929190611650565b5081600460008673ffffffffffffffffffffffffffffffffffffffff1673ffffffffffffffffffffffffffffffffffffffff1681526020019081526020016000206001019080519060200190610663929190611650565b506005849080600181540180825580915050600190039060005260206000200160009091909190916101000a81548173ffffffffffffffffffffffffffffffffffffffff021916908373ffffffffffffffffffffffffffffffffffffffff160217905550600660008154809291906106da90612125565b919050555050505050565b6000806000838152602001908152602001600020600101549050919050565b6000600354905090565b610717826106e5565b610728816107236111ae565b6111b6565b6107328383611253565b505050565b61073f6111ae565b73ffffffffffffffffffffffffffffffffffffffff168173ffffffffffffffffffffffffffffffffffffffff16146107ac576040517f08c379a00000000000000000000000000000000000000000000000000000000081526004016107a390611dfe565b60405180910390fd5b6107b68282611333565b5050565b600281815481106107ca57600080fd5b906000526020600020016000915054906101000a900473ffffffffffffffffffffffffffffffffffffffff1681565b6000600654905090565b6060600580548060200260200160405190810160405280929190818152602001828054801561088757602002820191906000526020600020905b8160009054906101000a900473ffffffffffffffffffffffffffffffffffffffff1673ffffffffffffffffffffffffffffffffffffffff168152602001906001019080831161083d575b5050505050905090565b6060600280548060200260200160405190810160405280929190818152602001828054801561091557602002820191906000526020600020905b8160009054906101000a900473ffffffffffffffffffffffffffffffffffffffff1673ffffffffffffffffffffffffffffffffffffffff16815260200190600101908083116108cb575b5050505050905090565b6005818154811061092f57600080fd5b906000526020600020016000915054906101000a900473ffffffffffffffffffffffffffffffffffffffff1681565b6109887f4162e7cd9c11bca0f028d6e333cef78a31eeca39aad0e9fdcb03ce7feccdcc0233610d62565b6109c7576040517f08c379a00000000000000000000000000000000000000000000000000000000081526004016109be90611dbe565b60405180910390fd5b6000600160008573ffffffffffffffffffffffffffffffffffffffff1673ffffffffffffffffffffffffffffffffffffffff1681526020019081526020016000206000018054610a16906120c2565b80601f0160208091040260200160405190810160405280929190818152602001828054610a42906120c2565b8015610a8f5780601f10610a6457610100808354040283529160200191610a8f565b820191906000526020600020905b815481529060010190602001808311610a7257829003601f168201915b505050505090506000815114610ada576040517f08c379a0000000000000000000000000000000000000000000000000000000008152600401610ad190611dde565b60405180910390fd5b82600160008673ffffffffffffffffffffffffffffffffffffffff1673ffffffffffffffffffffffffffffffffffffffff1681526020019081526020016000206000019080519060200190610b30929190611650565b5081600160008673ffffffffffffffffffffffffffffffffffffffff1673ffffffffffffffffffffffffffffffffffffffff1681526020019081526020016000206001019080519060200190610b87929190611650565b506002849080600181540180825580915050600190039060005260206000200160009091909190916101000a81548173ffffffffffffffffffffffffffffffffffffffff021916908373ffffffffffffffffffffffffffffffffffffffff16021790555060036000815480929190610bfe90612125565b919050555050505050565b60606000600460008473ffffffffffffffffffffffffffffffffffffffff1673ffffffffffffffffffffffffffffffffffffffff16815260200190815260200160002060020154905060008167ffffffffffffffff811115610c6e57610c6d6121fb565b5b604051908082528060200260200182016040528015610c9c5781602001602082028036833780820191505090505b50905060005b82811015610d3357600460008673ffffffffffffffffffffffffffffffffffffffff1673ffffffffffffffffffffffffffffffffffffffff168152602001908152602001600020600401600082815260200190815260200160002060010154828281518110610d1457610d136121cc565b5b6020026020010181815250508080610d2b90612125565b915050610ca2565b508092505050919050565b7fd16e204b8a42a15ab0ea6bb8ec1ecdfbe69f38074fc865323af19efe7d9573d981565b600080600084815260200190815260200160002060000160008373ffffffffffffffffffffffffffffffffffffffff1673ffffffffffffffffffffffffffffffffffffffff16815260200190815260200160002060009054906101000a900460ff16905092915050565b6000801b81565b7f4162e7cd9c11bca0f028d6e333cef78a31eeca39aad0e9fdcb03ce7feccdcc0281565b610e00826106e5565b610e1181610e0c6111ae565b6111b6565b610e1b8383611333565b505050565b610e4a7fd16e204b8a42a15ab0ea6bb8ec1ecdfbe69f38074fc865323af19efe7d9573d933610d62565b610e89576040517f08c379a0000000000000000000000000000000000000000000000000000000008152600401610e8090611d9e565b60405180910390fd5b6000600460008573ffffffffffffffffffffffffffffffffffffffff1673ffffffffffffffffffffffffffffffffffffffff1681526020019081526020016000206000018054610ed8906120c2565b80601f0160208091040260200160405190810160405280929190818152602001828054610f04906120c2565b8015610f515780601f10610f2657610100808354040283529160200191610f51565b820191906000526020600020905b815481529060010190602001808311610f3457829003601f168201915b505050505090506000815111610f9c576040517f08c379a0000000000000000000000000000000000000000000000000000000008152600401610f9390611d5e565b60405180910390fd5b82600460008673ffffffffffffffffffffffffffffffffffffffff1673ffffffffffffffffffffffffffffffffffffffff1681526020019081526020016000206004016000600460008873ffffffffffffffffffffffffffffffffffffffff1673ffffffffffffffffffffffffffffffffffffffff1681526020019081526020016000206002015481526020019081526020016000206001018190555081600460008673ffffffffffffffffffffffffffffffffffffffff1673ffffffffffffffffffffffffffffffffffffffff1681526020019081526020016000206004016000600460008873ffffffffffffffffffffffffffffffffffffffff1673ffffffffffffffffffffffffffffffffffffffff16815260200190815260200160002060020154815260200190815260200160002060000190805190602001906110e5929190611650565b50600460008573ffffffffffffffffffffffffffffffffffffffff1673ffffffffffffffffffffffffffffffffffffffff168152602001908152602001600020600201600081548092919061113990612125565b919050555050505050565b60007f01ffc9a7000000000000000000000000000000000000000000000000000000007bffffffffffffffffffffffffffffffffffffffffffffffffffffffff1916827bffffffffffffffffffffffffffffffffffffffffffffffffffffffff1916149050919050565b600033905090565b6111c08282610d62565b61124f576111e58173ffffffffffffffffffffffffffffffffffffffff166014611414565b6111f38360001c6020611414565b604051602001611204929190611c6d565b6040516020818303038152906040526040517f08c379a00000000000000000000000000000000000000000000000000000000081526004016112469190611d3c565b60405180910390fd5b5050565b61125d8282610d62565b61132f57600160008084815260200190815260200160002060000160008373ffffffffffffffffffffffffffffffffffffffff1673ffffffffffffffffffffffffffffffffffffffff16815260200190815260200160002060006101000a81548160ff0219169083151502179055506112d46111ae565b73ffffffffffffffffffffffffffffffffffffffff168173ffffffffffffffffffffffffffffffffffffffff16837f2f8788117e7eff1d82e926ec794901d17c78024a50270940304540a733656f0d60405160405180910390a45b5050565b61133d8282610d62565b1561141057600080600084815260200190815260200160002060000160008373ffffffffffffffffffffffffffffffffffffffff1673ffffffffffffffffffffffffffffffffffffffff16815260200190815260200160002060006101000a81548160ff0219169083151502179055506113b56111ae565b73ffffffffffffffffffffffffffffffffffffffff168173ffffffffffffffffffffffffffffffffffffffff16837ff6391f5c32d9c69d2a47ea670b442974b53935d1edc7fd64eb21e047a839171b60405160405180910390a45b5050565b6060600060028360026114279190611f7e565b6114319190611f28565b67ffffffffffffffff81111561144a576114496121fb565b5b6040519080825280601f01601f19166020018201604052801561147c5781602001600182028036833780820191505090505b5090507f3000000000000000000000000000000000000000000000000000000000000000816000815181106114b4576114b36121cc565b5b60200101907effffffffffffffffffffffffffffffffffffffffffffffffffffffffffffff1916908160001a9053507f780000000000000000000000000000000000000000000000000000000000000081600181518110611518576115176121cc565b5b60200101907effffffffffffffffffffffffffffffffffffffffffffffffffffffffffffff1916908160001a905350600060018460026115589190611f7e565b6115629190611f28565b90505b6001811115611602577f3031323334353637383961626364656600000000000000000000000000000000600f8616601081106115a4576115a36121cc565b5b1a60f81b8282815181106115bb576115ba6121cc565b5b60200101907effffffffffffffffffffffffffffffffffffffffffffffffffffffffffffff1916908160001a905350600485901c9450806115fb90612098565b9050611565565b5060008414611646576040517f08c379a000000000000000000000000000000000000000000000000000000000815260040161163d90611d7e565b60405180910390fd5b8091505092915050565b82805461165c906120c2565b90600052602060002090601f01602090048101928261167e57600085556116c5565b82601f1061169757805160ff19168380011785556116c5565b828001600101855582156116c5579182015b828111156116c45782518255916020019190600101906116a9565b5b5090506116d291906116d6565b5090565b5b808211156116ef5760008160009055506001016116d7565b5090565b600061170661170184611e5e565b611e39565b9050828152602081018484840111156117225761172161222f565b5b61172d848285612056565b509392505050565b600081359050611744816123bd565b92915050565b600081359050611759816123d4565b92915050565b60008135905061176e816123eb565b92915050565b600082601f8301126117895761178861222a565b5b81356117998482602086016116f3565b91505092915050565b6000813590506117b181612402565b92915050565b6000602082840312156117cd576117cc612239565b5b60006117db84828501611735565b91505092915050565b6000806000606084860312156117fd576117fc612239565b5b600061180b86828701611735565b935050602084013567ffffffffffffffff81111561182c5761182b612234565b5b61183886828701611774565b925050604084013567ffffffffffffffff81111561185957611858612234565b5b61186586828701611774565b9150509250925092565b60008060006060848603121561188857611887612239565b5b600061189686828701611735565b93505060206118a7868287016117a2565b925050604084013567ffffffffffffffff8111156118c8576118c7612234565b5b6118d486828701611774565b9150509250925092565b6000602082840312156118f4576118f3612239565b5b60006119028482850161174a565b91505092915050565b6000806040838503121561192257611921612239565b5b60006119308582860161174a565b925050602061194185828601611735565b9150509250929050565b60006020828403121561196157611960612239565b5b600061196f8482850161175f565b91505092915050565b60006020828403121561198e5761198d612239565b5b600061199c848285016117a2565b91505092915050565b60006119b183836119d5565b60208301905092915050565b60006119c98383611c4f565b60208301905092915050565b6119de81611fd8565b82525050565b6119ed81611fd8565b82525050565b60006119fe82611eaf565b611a088185611eea565b9350611a1383611e8f565b8060005b83811015611a44578151611a2b88826119a5565b9750611a3683611ed0565b925050600181019050611a17565b5085935050505092915050565b6000611a5c82611eba565b611a668185611efb565b9350611a7183611e9f565b8060005b83811015611aa2578151611a8988826119bd565b9750611a9483611edd565b925050600181019050611a75565b5085935050505092915050565b611ab881611fea565b82525050565b611ac781611ff6565b82525050565b6000611ad882611ec5565b611ae28185611f0c565b9350611af2818560208601612065565b611afb8161223e565b840191505092915050565b6000611b1182611ec5565b611b1b8185611f1d565b9350611b2b818560208601612065565b80840191505092915050565b6000611b44602083611f0c565b9150611b4f8261224f565b602082019050919050565b6000611b67602083611f0c565b9150611b7282612278565b602082019050919050565b6000611b8a601783611f0c565b9150611b95826122a1565b602082019050919050565b6000611bad601a83611f0c565b9150611bb8826122ca565b602082019050919050565b6000611bd0600b83611f0c565b9150611bdb826122f3565b602082019050919050565b6000611bf3601783611f1d565b9150611bfe8261231c565b601782019050919050565b6000611c16601183611f1d565b9150611c2182612345565b601182019050919050565b6000611c39602f83611f0c565b9150611c448261236e565b604082019050919050565b611c588161204c565b82525050565b611c678161204c565b82525050565b6000611c7882611be6565b9150611c848285611b06565b9150611c8f82611c09565b9150611c9b8284611b06565b91508190509392505050565b6000602082019050611cbc60008301846119e4565b92915050565b60006020820190508181036000830152611cdc81846119f3565b905092915050565b60006020820190508181036000830152611cfe8184611a51565b905092915050565b6000602082019050611d1b6000830184611aaf565b92915050565b6000602082019050611d366000830184611abe565b92915050565b60006020820190508181036000830152611d568184611acd565b905092915050565b60006020820190508181036000830152611d7781611b37565b9050919050565b60006020820190508181036000830152611d9781611b5a565b9050919050565b60006020820190508181036000830152611db781611b7d565b9050919050565b60006020820190508181036000830152611dd781611ba0565b9050919050565b60006020820190508181036000830152611df781611bc3565b9050919050565b60006020820190508181036000830152611e1781611c2c565b9050919050565b6000602082019050611e336000830184611c5e565b92915050565b6000611e43611e54565b9050611e4f82826120f4565b919050565b6000604051905090565b600067ffffffffffffffff821115611e7957611e786121fb565b5b611e828261223e565b9050602081019050919050565b6000819050602082019050919050565b6000819050602082019050919050565b600081519050919050565b600081519050919050565b600081519050919050565b6000602082019050919050565b6000602082019050919050565b600082825260208201905092915050565b600082825260208201905092915050565b600082825260208201905092915050565b600081905092915050565b6000611f338261204c565b9150611f3e8361204c565b9250827fffffffffffffffffffffffffffffffffffffffffffffffffffffffffffffffff03821115611f7357611f7261216e565b5b828201905092915050565b6000611f898261204c565b9150611f948361204c565b9250817fffffffffffffffffffffffffffffffffffffffffffffffffffffffffffffffff0483118215151615611fcd57611fcc61216e565b5b828202905092915050565b6000611fe38261202c565b9050919050565b60008115159050919050565b6000819050919050565b60007fffffffff0000000000000000000000000000000000000000000000000000000082169050919050565b600073ffffffffffffffffffffffffffffffffffffffff82169050919050565b6000819050919050565b82818337600083830152505050565b60005b83811015612083578082015181840152602081019050612068565b83811115612092576000848401525b50505050565b60006120a38261204c565b915060008214156120b7576120b661216e565b5b600182039050919050565b600060028204905060018216806120da57607f821691505b602082108114156120ee576120ed61219d565b5b50919050565b6120fd8261223e565b810181811067ffffffffffffffff8211171561211c5761211b6121fb565b5b80604052505050565b60006121308261204c565b91507fffffffffffffffffffffffffffffffffffffffffffffffffffffffffffffffff8214156121635761216261216e565b5b600182019050919050565b7f4e487b7100000000000000000000000000000000000000000000000000000000600052601160045260246000fd5b7f4e487b7100000000000000000000000000000000000000000000000000000000600052602260045260246000fd5b7f4e487b7100000000000000000000000000000000000000000000000000000000600052603260045260246000fd5b7f4e487b7100000000000000000000000000000000000000000000000000000000600052604160045260246000fd5b600080fd5b600080fd5b600080fd5b600080fd5b6000601f19601f8301169050919050565b7f696c206661757420642761626f7264206372656572206c652073747564656e74600082015250565b7f537472696e67733a20686578206c656e67746820696e73756666696369656e74600082015250565b7f43616c6c6572206973206e6f7420612074656163686572000000000000000000600082015250565b7f43616c6c6572206973206e6f74206120686561646d6173746572000000000000600082015250565b7f4578697374652064656a61000000000000000000000000000000000000000000600082015250565b7f416363657373436f6e74726f6c3a206163636f756e7420000000000000000000600082015250565b7f206973206d697373696e6720726f6c6520000000000000000000000000000000600082015250565b7f416363657373436f6e74726f6c3a2063616e206f6e6c792072656e6f756e636560008201527f20726f6c657320666f722073656c660000000000000000000000000000000000602082015250565b6123c681611fd8565b81146123d157600080fd5b50565b6123dd81611ff6565b81146123e857600080fd5b50565b6123f481612000565b81146123ff57600080fd5b50565b61240b8161204c565b811461241657600080fd5b5056fea2646970667358221220956fc634a820c88588c10faa90f7facc957a56f5ff58084eb09803e5ae4003e764736f6c63430008070033",
  "immutableReferences": {},
  "source": "// SPDX-License-Identifier: MIT\npragma solidity ^0.8.7;\n\nimport \"@openzeppelin/contracts/access/AccessControl.sol\";\n\ncontract SchoolManager is AccessControl{\n    // Create a new role identifier for the headmaster role\n    bytes32 public constant HEADMASTER_ADMIN_ROLE = keccak256(\"HEADMASTER_ADMIN_ROLE\");\n    bytes32 public constant TEACHER_ROLE = keccak256(\"TEACHER_ROLE\");\n\n    constructor() { \n    _setupRole(HEADMASTER_ADMIN_ROLE, msg.sender); \n    _setRoleAdmin(TEACHER_ROLE, HEADMASTER_ADMIN_ROLE);\n    _setRoleAdmin(HEADMASTER_ADMIN_ROLE,HEADMASTER_ADMIN_ROLE); \n    }\n    \n    //on verifie que l'utilisateur est bien teacher\n    modifier onlyTeacher() {\n        require(hasRole(TEACHER_ROLE, msg.sender), \"Caller is not a teacher\");\n        _;\n    }\n    \n    //on verifie que l'utilisateur est bien director\n        modifier onlyHeadmaster(){\n        require(hasRole(HEADMASTER_ADMIN_ROLE, msg.sender), \"Caller is not a headmaster\");\n        _;\n    }\n    \n        struct Teacher {\n        string firstName;\n        string lastName;\n    }\n    \n    mapping(address => Teacher) teachers;\n    address[] public ListOfTeachers;\n    uint teacherCount; \n    \n    struct Grade {\n        string subject;\n        uint grade;\n    }\n    \n    struct Student {\n        string firstName;\n        string lastName;\n        uint numberOfGrades;\n        uint numberOfStudents;\n        // uint represente l'index dans le tableau de note\n        mapping(uint => Grade) grades;\n    }\n    \n    // par le bias du mapping , chaque address correspond  un Student, on accede donc  son firstName, lastName ... \n    // par le bias de Student on accede galement  la structure Grade, donc les notes par sujet et par note\n    mapping(address => Student) students;\n    address[] public ListOfStudents;\n    uint studentCount; \n\n\n\n\n        function addTeacher(address _teacherAddress, string memory _firstName, string memory _lastName) external onlyHeadmaster {\n       /* require(owner == msg.sender, 'not the owner');*/\n        bytes memory firstNameOfAddress = bytes(teachers[_teacherAddress].firstName);\n        // on check que l'address n'existe pas dj , elle soit tre gale  0 , si elle est a plus de 0 elle existe deja ,impossible de la rajouter\n        require(firstNameOfAddress.length == 0, \"Existe deja\");\n        teachers[_teacherAddress].firstName = _firstName;\n        teachers[_teacherAddress].lastName = _lastName;\n        ListOfTeachers.push(_teacherAddress);\n        teacherCount++;\n    }\n    \n    function addStudent(address _studentAddress, string memory _firstName, string memory _lastName) external onlyTeacher {\n        /*require(owner == msg.sender, 'not the owner');*/\n        bytes memory firstNameOfAddress = bytes(students[_studentAddress].firstName);\n        // on check que l'address n'existe pas dj , elle soit tre gale  0 , si elle est a plus de 0 elle existe deja ,impossible de la rajouter\n        require(firstNameOfAddress.length == 0, \"Existe deja\");\n        students[_studentAddress].firstName = _firstName;\n        students[_studentAddress].lastName = _lastName;\n        ListOfStudents.push(_studentAddress);\n        studentCount++;\n    }\n    \n    function addGrade(address _studentAddress, uint _grade, string memory _subject) external onlyTeacher {\n\n        bytes memory firstNameOfAddress = bytes(students[_studentAddress].firstName);\n        // si elle est pas superieur  0 , alors il faut creer le student\n        require(firstNameOfAddress.length > 0, \"il faut d'abord creer le student\");\n        // students[_studentAddress].grades[0], cette syntaxe va fonctionner une fois, mais la prochaine fois \n        // on pourra pas remettre une nouvelle note  l'index zero \n        // il nous faut donc toujours l'index \n        students[_studentAddress].grades[students[_studentAddress].numberOfGrades].grade = _grade;\n        students[_studentAddress].grades[students[_studentAddress].numberOfGrades].subject = _subject;\n        students[_studentAddress].numberOfGrades++;\n    }\n    \n    // ici on place dans le returns un tableau vide , on place dans le return ce qu'on veut que la fonction retourne\n    // on veut que la fonction retour un tableau de notes donc on initialise un tableau vide qu'on met dans memory\n    // inutile de le stocker dans la blockchain donc il va dans memory et pas storage sinon la prochaine \n    function getGrades(address _studentAddress) public view returns (uint[] memory) {\n        uint numberGradesThisStudent = students[_studentAddress].numberOfGrades;\n        // ici on cre le tableau de notes , quand on cre un nouveau tableau on doit toujours lui donner une longueur\n        // une taille , ici la taille c'est le nombre de note de l'eleve\n        uint[] memory grades = new uint[](numberGradesThisStudent);\n        for(uint i = 0 ; i < numberGradesThisStudent ; i++ ) {\n            grades[i] = students[_studentAddress].grades[i].grade;\n        }\n        return grades;\n    }\n    \n\n    function showListOfTeachers() public view returns (address[] memory) {\n        return ListOfTeachers;\n    }\n    \n        function showListOfStudents() public view returns (address[] memory) {\n        return ListOfStudents;\n    }\n    \n        function getTeachCount() public view returns (uint){\n\n        return teacherCount;\n    }\n        \n        function getStudentCount() public view returns (uint){\n\n        return studentCount;\n    }\n    \n}",
  "sourcePath": "/Users/sylvainsigonnez/git/schoolManager/contracts/schoolManager.sol",
  "compiler": {
    "name": "solc",
    "version": "0.8.7+commit.e28d00a7.Emscripten.clang"
  },
  "schemaVersion": "3.4.3",
  "updatedAt": "2021-11-22T10:59:36.407Z",
  "devdoc": {
    "kind": "dev",
    "methods": {
      "getRoleAdmin(bytes32)": {
        "details": "Returns the admin role that controls `role`. See {grantRole} and {revokeRole}. To change a role's admin, use {_setRoleAdmin}."
      },
      "grantRole(bytes32,address)": {
        "details": "Grants `role` to `account`. If `account` had not been already granted `role`, emits a {RoleGranted} event. Requirements: - the caller must have ``role``'s admin role."
      },
      "hasRole(bytes32,address)": {
        "details": "Returns `true` if `account` has been granted `role`."
      },
      "renounceRole(bytes32,address)": {
        "details": "Revokes `role` from the calling account. Roles are often managed via {grantRole} and {revokeRole}: this function's purpose is to provide a mechanism for accounts to lose their privileges if they are compromised (such as when a trusted device is misplaced). If the calling account had been granted `role`, emits a {RoleRevoked} event. Requirements: - the caller must be `account`."
      },
      "revokeRole(bytes32,address)": {
        "details": "Revokes `role` from `account`. If `account` had been granted `role`, emits a {RoleRevoked} event. Requirements: - the caller must have ``role``'s admin role."
      },
      "supportsInterface(bytes4)": {
        "details": "See {IERC165-supportsInterface}."
      }
    },
    "version": 1
  },
  "userdoc": {
    "kind": "user",
    "methods": {},
    "version": 1
  }
}